{
  "_format": "hh-sol-artifact-1",
  "contractName": "Chainboard",
  "sourceName": "contracts/Chainboard.sol",
  "abi": [
    {
      "inputs": [],
      "stateMutability": "nonpayable",
      "type": "constructor"
    },
    {
      "inputs": [
        {
          "internalType": "address",
          "name": "walletAddress",
          "type": "address"
        },
        {
          "internalType": "bool",
          "name": "canRent",
          "type": "bool"
        },
        {
          "internalType": "bool",
          "name": "isRenting",
          "type": "bool"
        },
        {
          "internalType": "string",
          "name": "level",
          "type": "string"
        },
        {
          "internalType": "uint8",
          "name": "size",
          "type": "uint8"
        },
        {
          "internalType": "uint128",
          "name": "due",
          "type": "uint128"
        },
        {
          "internalType": "uint256",
          "name": "start",
          "type": "uint256"
        },
        {
          "internalType": "uint256",
          "name": "end",
          "type": "uint256"
        }
      ],
      "name": "addRenter",
      "outputs": [],
      "stateMutability": "nonpayable",
      "type": "function"
    },
    {
      "inputs": [
        {
          "internalType": "address",
          "name": "walletAddress",
          "type": "address"
        },
        {
          "internalType": "uint128",
          "name": "snowboardPrice",
          "type": "uint128"
        }
      ],
      "name": "checkIn",
      "outputs": [],
      "stateMutability": "nonpayable",
      "type": "function"
    },
    {
      "inputs": [
        {
          "internalType": "address",
          "name": "walletAddress",
          "type": "address"
        },
        {
          "internalType": "string",
          "name": "level",
          "type": "string"
        },
        {
          "internalType": "uint8",
          "name": "size",
          "type": "uint8"
        }
      ],
      "name": "checkOut",
      "outputs": [],
      "stateMutability": "nonpayable",
      "type": "function"
    },
    {
      "inputs": [
        {
          "internalType": "address",
          "name": "walletAddress",
          "type": "address"
        }
      ],
      "name": "getActualDuration",
      "outputs": [
        {
          "internalType": "uint256",
          "name": "",
          "type": "uint256"
        }
      ],
      "stateMutability": "view",
      "type": "function"
    },
    {
      "inputs": [
        {
          "internalType": "address",
          "name": "walletAddress",
          "type": "address"
        }
      ],
      "name": "getDue",
      "outputs": [
        {
          "internalType": "uint256",
          "name": "",
          "type": "uint256"
        }
      ],
      "stateMutability": "view",
      "type": "function"
    },
    {
      "inputs": [
        {
          "internalType": "address",
          "name": "walletAddress",
          "type": "address"
        }
      ],
      "name": "getLevel",
      "outputs": [
        {
          "internalType": "string",
          "name": "level",
          "type": "string"
        }
      ],
      "stateMutability": "view",
      "type": "function"
    },
    {
      "inputs": [
        {
          "internalType": "address",
          "name": "walletAddress",
          "type": "address"
        }
      ],
      "name": "getRenterStatus",
      "outputs": [
        {
          "internalType": "bool",
          "name": "canRent",
          "type": "bool"
        },
        {
          "internalType": "bool",
          "name": "isRenting",
          "type": "bool"
        }
      ],
      "stateMutability": "view",
      "type": "function"
    },
    {
      "inputs": [
        {
          "internalType": "address",
          "name": "walletAddress",
          "type": "address"
        }
      ],
      "name": "getSize",
      "outputs": [
        {
          "internalType": "uint8",
          "name": "size",
          "type": "uint8"
        }
      ],
      "stateMutability": "view",
      "type": "function"
    },
    {
      "inputs": [
        {
          "internalType": "address",
          "name": "walletAddress",
          "type": "address"
        }
      ],
      "name": "getTotalDuration",
      "outputs": [
        {
          "internalType": "uint256",
          "name": "",
          "type": "uint256"
        }
      ],
      "stateMutability": "view",
      "type": "function"
    },
    {
      "inputs": [
        {
          "internalType": "address",
          "name": "walletAddress",
          "type": "address"
        }
      ],
      "name": "makePayment",
      "outputs": [],
      "stateMutability": "payable",
      "type": "function"
    },
    {
      "inputs": [
        {
          "internalType": "address",
          "name": "walletAddress",
          "type": "address"
        }
      ],
      "name": "renterExists",
      "outputs": [
        {
          "internalType": "bool",
          "name": "",
          "type": "bool"
        }
      ],
      "stateMutability": "view",
      "type": "function"
    }
  ],
  "bytecode": "0x608060405234801561001057600080fd5b50336000806101000a81548173ffffffffffffffffffffffffffffffffffffffff021916908373ffffffffffffffffffffffffffffffffffffffff1602179055506125ed806100606000396000f3fe60806040526004361061009c5760003560e01c80638c2e0011116100645780638c2e0011146101b1578063c6d2a846146101da578063ce12482b14610217578063d1062f6314610255578063daee42531461027e578063f9d8241c146102a75761009c565b8063300be4fc146100a157806337da3882146100bd57806341ba6e89146100fa578063504f167114610137578063817c896614610174575b600080fd5b6100bb60048036038101906100b6919061183d565b6102e4565b005b3480156100c957600080fd5b506100e460048036038101906100df919061183d565b610687565b6040516100f19190611883565b60405180910390f35b34801561010657600080fd5b50610121600480360381019061011c919061183d565b6107f2565b60405161012e9190611883565b60405180910390f35b34801561014357600080fd5b5061015e6004803603810190610159919061183d565b610aa9565b60405161016b91906118ba565b60405180910390f35b34801561018057600080fd5b5061019b6004803603810190610196919061183d565b610b72565b6040516101a89190611965565b60405180910390f35b3480156101bd57600080fd5b506101d860048036038101906101d39190611ae8565b610cb6565b005b3480156101e657600080fd5b5061020160048036038101906101fc919061183d565b61101b565b60405161020e9190611883565b60405180910390f35b34801561022357600080fd5b5061023e6004803603810190610239919061183d565b611105565b60405161024c929190611b72565b60405180910390f35b34801561026157600080fd5b5061027c60048036038101906102779190611be3565b611221565b005b34801561028a57600080fd5b506102a560048036038101906102a09190611c7b565b6113d7565b005b3480156102b357600080fd5b506102ce60048036038101906102c9919061183d565b6115ec565b6040516102db9190611d4d565b60405180910390f35b808073ffffffffffffffffffffffffffffffffffffffff163373ffffffffffffffffffffffffffffffffffffffff1614610353576040517f08c379a000000000000000000000000000000000000000000000000000000000815260040161034a90611dda565b60405180910390fd5b6000600160008473ffffffffffffffffffffffffffffffffffffffff1673ffffffffffffffffffffffffffffffffffffffff16815260200190815260200160002060020160019054906101000a90046fffffffffffffffffffffffffffffffff166fffffffffffffffffffffffffffffffff1611610406576040517f08c379a00000000000000000000000000000000000000000000000000000000081526004016103fd90611e6c565b60405180910390fd5b34600160008473ffffffffffffffffffffffffffffffffffffffff1673ffffffffffffffffffffffffffffffffffffffff16815260200190815260200160002060020160019054906101000a90046fffffffffffffffffffffffffffffffff166fffffffffffffffffffffffffffffffff16146104b8576040517f08c379a00000000000000000000000000000000000000000000000000000000081526004016104af90611efe565b60405180910390fd5b60008054906101000a900473ffffffffffffffffffffffffffffffffffffffff1673ffffffffffffffffffffffffffffffffffffffff166108fc349081150290604051600060405180830381858888f1935050505015801561051e573d6000803e3d6000fd5b5060018060008473ffffffffffffffffffffffffffffffffffffffff1673ffffffffffffffffffffffffffffffffffffffff16815260200190815260200160002060000160146101000a81548160ff0219169083151502179055506000600160008473ffffffffffffffffffffffffffffffffffffffff1673ffffffffffffffffffffffffffffffffffffffff16815260200190815260200160002060020160016101000a8154816fffffffffffffffffffffffffffffffff02191690836fffffffffffffffffffffffffffffffff1602179055506000600160008473ffffffffffffffffffffffffffffffffffffffff1673ffffffffffffffffffffffffffffffffffffffff168152602001908152602001600020600301819055506000600160008473ffffffffffffffffffffffffffffffffffffffff1673ffffffffffffffffffffffffffffffffffffffff168152602001908152602001600020600401819055505050565b6000818073ffffffffffffffffffffffffffffffffffffffff163373ffffffffffffffffffffffffffffffffffffffff16146106f8576040517f08c379a00000000000000000000000000000000000000000000000000000000081526004016106ef90611dda565b60405180910390fd5b60011515600160008573ffffffffffffffffffffffffffffffffffffffff1673ffffffffffffffffffffffffffffffffffffffff16815260200190815260200160002060000160159054906101000a900460ff1615151461078e576040517f08c379a000000000000000000000000000000000000000000000000000000000815260040161078590611f6a565b60405180910390fd5b6000600160008573ffffffffffffffffffffffffffffffffffffffff1673ffffffffffffffffffffffffffffffffffffffff16815260200190815260200160002060030154426107de9190611fb9565b90506107e981611707565b92505050919050565b6000818073ffffffffffffffffffffffffffffffffffffffff163373ffffffffffffffffffffffffffffffffffffffff1614610863576040517f08c379a000000000000000000000000000000000000000000000000000000000815260040161085a90611dda565b60405180910390fd5b60001515600160008573ffffffffffffffffffffffffffffffffffffffff1673ffffffffffffffffffffffffffffffffffffffff16815260200190815260200160002060000160159054906101000a900460ff161515146108f9576040517f08c379a00000000000000000000000000000000000000000000000000000000081526004016108f09061205f565b60405180910390fd5b6000600160008573ffffffffffffffffffffffffffffffffffffffff1673ffffffffffffffffffffffffffffffffffffffff168152602001908152602001600020600301541161097e576040517f08c379a0000000000000000000000000000000000000000000000000000000008152600401610975906120cb565b60405180910390fd5b6000600160008573ffffffffffffffffffffffffffffffffffffffff1673ffffffffffffffffffffffffffffffffffffffff1681526020019081526020016000206004015411610a03576040517f08c379a00000000000000000000000000000000000000000000000000000000081526004016109fa9061205f565b60405180910390fd5b6000600160008573ffffffffffffffffffffffffffffffffffffffff1673ffffffffffffffffffffffffffffffffffffffff16815260200190815260200160002060030154600160008673ffffffffffffffffffffffffffffffffffffffff1673ffffffffffffffffffffffffffffffffffffffff16815260200190815260200160002060040154610a959190611fb9565b9050610aa081611707565b92505050919050565b6000818073ffffffffffffffffffffffffffffffffffffffff163373ffffffffffffffffffffffffffffffffffffffff1614610b1a576040517f08c379a0000000000000000000000000000000000000000000000000000000008152600401610b1190611dda565b60405180910390fd5b600160008473ffffffffffffffffffffffffffffffffffffffff1673ffffffffffffffffffffffffffffffffffffffff16815260200190815260200160002060020160009054906101000a900460ff16915050919050565b6060818073ffffffffffffffffffffffffffffffffffffffff163373ffffffffffffffffffffffffffffffffffffffff1614610be3576040517f08c379a0000000000000000000000000000000000000000000000000000000008152600401610bda90611dda565b60405180910390fd5b600160008473ffffffffffffffffffffffffffffffffffffffff1673ffffffffffffffffffffffffffffffffffffffff1681526020019081526020016000206001018054610c309061211a565b80601f0160208091040260200160405190810160405280929190818152602001828054610c5c9061211a565b8015610ca95780601f10610c7e57610100808354040283529160200191610ca9565b820191906000526020600020905b815481529060010190602001808311610c8c57829003601f168201915b5050505050915050919050565b828073ffffffffffffffffffffffffffffffffffffffff163373ffffffffffffffffffffffffffffffffffffffff1614610d25576040517f08c379a0000000000000000000000000000000000000000000000000000000008152600401610d1c90611dda565b60405180910390fd5b6000600160008673ffffffffffffffffffffffffffffffffffffffff1673ffffffffffffffffffffffffffffffffffffffff16815260200190815260200160002060020160019054906101000a90046fffffffffffffffffffffffffffffffff166fffffffffffffffffffffffffffffffff1614610dd8576040517f08c379a0000000000000000000000000000000000000000000000000000000008152600401610dcf90612197565b60405180910390fd5b60011515600160008673ffffffffffffffffffffffffffffffffffffffff1673ffffffffffffffffffffffffffffffffffffffff16815260200190815260200160002060000160149054906101000a900460ff16151514610e6e576040517f08c379a0000000000000000000000000000000000000000000000000000000008152600401610e6590612203565b60405180910390fd5b60018060008673ffffffffffffffffffffffffffffffffffffffff1673ffffffffffffffffffffffffffffffffffffffff16815260200190815260200160002060000160156101000a81548160ff02191690831515021790555082600160008673ffffffffffffffffffffffffffffffffffffffff1673ffffffffffffffffffffffffffffffffffffffff1681526020019081526020016000206001019081610f1791906123cf565b5081600160008673ffffffffffffffffffffffffffffffffffffffff1673ffffffffffffffffffffffffffffffffffffffff16815260200190815260200160002060020160006101000a81548160ff021916908360ff16021790555042600160008673ffffffffffffffffffffffffffffffffffffffff1673ffffffffffffffffffffffffffffffffffffffff168152602001908152602001600020600301819055506000600160008673ffffffffffffffffffffffffffffffffffffffff1673ffffffffffffffffffffffffffffffffffffffff16815260200190815260200160002060000160146101000a81548160ff02191690831515021790555050505050565b6000818073ffffffffffffffffffffffffffffffffffffffff163373ffffffffffffffffffffffffffffffffffffffff161461108c576040517f08c379a000000000000000000000000000000000000000000000000000000000815260040161108390611dda565b60405180910390fd5b600160008473ffffffffffffffffffffffffffffffffffffffff1673ffffffffffffffffffffffffffffffffffffffff16815260200190815260200160002060020160019054906101000a90046fffffffffffffffffffffffffffffffff166fffffffffffffffffffffffffffffffff16915050919050565b600080828073ffffffffffffffffffffffffffffffffffffffff163373ffffffffffffffffffffffffffffffffffffffff1614611177576040517f08c379a000000000000000000000000000000000000000000000000000000000815260040161116e90611dda565b60405180910390fd5b600160008573ffffffffffffffffffffffffffffffffffffffff1673ffffffffffffffffffffffffffffffffffffffff16815260200190815260200160002060000160149054906101000a900460ff169250600160008573ffffffffffffffffffffffffffffffffffffffff1673ffffffffffffffffffffffffffffffffffffffff16815260200190815260200160002060000160159054906101000a900460ff16915050915091565b818073ffffffffffffffffffffffffffffffffffffffff163373ffffffffffffffffffffffffffffffffffffffff1614611290576040517f08c379a000000000000000000000000000000000000000000000000000000000815260040161128790611dda565b60405180910390fd5b60011515600160008573ffffffffffffffffffffffffffffffffffffffff1673ffffffffffffffffffffffffffffffffffffffff16815260200190815260200160002060000160159054906101000a900460ff16151514611326576040517f08c379a000000000000000000000000000000000000000000000000000000000815260040161131d90611f6a565b60405180910390fd5b6000600160008573ffffffffffffffffffffffffffffffffffffffff1673ffffffffffffffffffffffffffffffffffffffff16815260200190815260200160002060000160156101000a81548160ff02191690831515021790555042600160008573ffffffffffffffffffffffffffffffffffffffff1673ffffffffffffffffffffffffffffffffffffffff168152602001908152602001600020600401819055506113d28383611735565b505050565b600015156113e4896115ec565b151514611426576040517f08c379a000000000000000000000000000000000000000000000000000000000815260040161141d906124ed565b60405180910390fd5b6040518061010001604052808973ffffffffffffffffffffffffffffffffffffffff168152602001881515815260200187151581526020018681526020018560ff168152602001846fffffffffffffffffffffffffffffffff16815260200183815260200182815250600160008a73ffffffffffffffffffffffffffffffffffffffff1673ffffffffffffffffffffffffffffffffffffffff16815260200190815260200160002060008201518160000160006101000a81548173ffffffffffffffffffffffffffffffffffffffff021916908373ffffffffffffffffffffffffffffffffffffffff16021790555060208201518160000160146101000a81548160ff02191690831515021790555060408201518160000160156101000a81548160ff021916908315150217905550606082015181600101908161156a91906123cf565b5060808201518160020160006101000a81548160ff021916908360ff16021790555060a08201518160020160016101000a8154816fffffffffffffffffffffffffffffffff02191690836fffffffffffffffffffffffffffffffff16021790555060c0820151816003015560e082015181600401559050505050505050505050565b6000818073ffffffffffffffffffffffffffffffffffffffff163373ffffffffffffffffffffffffffffffffffffffff161461165d576040517f08c379a000000000000000000000000000000000000000000000000000000000815260040161165490611dda565b60405180910390fd5b600073ffffffffffffffffffffffffffffffffffffffff16600160008573ffffffffffffffffffffffffffffffffffffffff1673ffffffffffffffffffffffffffffffffffffffff16815260200190815260200160002060000160009054906101000a900473ffffffffffffffffffffffffffffffffffffffff1673ffffffffffffffffffffffffffffffffffffffff16146116fc5760019150611701565b600091505b50919050565b6000603c821061172b576000603c83611720919061253c565b905080915050611730565b600190505b919050565b6000611740836107f2565b9050818161174e919061256d565b600160008573ffffffffffffffffffffffffffffffffffffffff1673ffffffffffffffffffffffffffffffffffffffff16815260200190815260200160002060020160016101000a8154816fffffffffffffffffffffffffffffffff02191690836fffffffffffffffffffffffffffffffff160217905550505050565b6000604051905090565b600080fd5b600080fd5b600073ffffffffffffffffffffffffffffffffffffffff82169050919050565b600061180a826117df565b9050919050565b61181a816117ff565b811461182557600080fd5b50565b60008135905061183781611811565b92915050565b600060208284031215611853576118526117d5565b5b600061186184828501611828565b91505092915050565b6000819050919050565b61187d8161186a565b82525050565b60006020820190506118986000830184611874565b92915050565b600060ff82169050919050565b6118b48161189e565b82525050565b60006020820190506118cf60008301846118ab565b92915050565b600081519050919050565b600082825260208201905092915050565b60005b8381101561190f5780820151818401526020810190506118f4565b60008484015250505050565b6000601f19601f8301169050919050565b6000611937826118d5565b61194181856118e0565b93506119518185602086016118f1565b61195a8161191b565b840191505092915050565b6000602082019050818103600083015261197f818461192c565b905092915050565b600080fd5b600080fd5b7f4e487b7100000000000000000000000000000000000000000000000000000000600052604160045260246000fd5b6119c98261191b565b810181811067ffffffffffffffff821117156119e8576119e7611991565b5b80604052505050565b60006119fb6117cb565b9050611a0782826119c0565b919050565b600067ffffffffffffffff821115611a2757611a26611991565b5b611a308261191b565b9050602081019050919050565b82818337600083830152505050565b6000611a5f611a5a84611a0c565b6119f1565b905082815260208101848484011115611a7b57611a7a61198c565b5b611a86848285611a3d565b509392505050565b600082601f830112611aa357611aa2611987565b5b8135611ab3848260208601611a4c565b91505092915050565b611ac58161189e565b8114611ad057600080fd5b50565b600081359050611ae281611abc565b92915050565b600080600060608486031215611b0157611b006117d5565b5b6000611b0f86828701611828565b935050602084013567ffffffffffffffff811115611b3057611b2f6117da565b5b611b3c86828701611a8e565b9250506040611b4d86828701611ad3565b9150509250925092565b60008115159050919050565b611b6c81611b57565b82525050565b6000604082019050611b876000830185611b63565b611b946020830184611b63565b9392505050565b60006fffffffffffffffffffffffffffffffff82169050919050565b611bc081611b9b565b8114611bcb57600080fd5b50565b600081359050611bdd81611bb7565b92915050565b60008060408385031215611bfa57611bf96117d5565b5b6000611c0885828601611828565b9250506020611c1985828601611bce565b9150509250929050565b611c2c81611b57565b8114611c3757600080fd5b50565b600081359050611c4981611c23565b92915050565b611c588161186a565b8114611c6357600080fd5b50565b600081359050611c7581611c4f565b92915050565b600080600080600080600080610100898b031215611c9c57611c9b6117d5565b5b6000611caa8b828c01611828565b9850506020611cbb8b828c01611c3a565b9750506040611ccc8b828c01611c3a565b965050606089013567ffffffffffffffff811115611ced57611cec6117da565b5b611cf98b828c01611a8e565b9550506080611d0a8b828c01611ad3565b94505060a0611d1b8b828c01611bce565b93505060c0611d2c8b828c01611c66565b92505060e0611d3d8b828c01611c66565b9150509295985092959890939650565b6000602082019050611d626000830184611b63565b92915050565b7f596f752063616e206f6e6c79206d616e61676520796f7572206163636f756e7460008201527f2e00000000000000000000000000000000000000000000000000000000000000602082015250565b6000611dc46021836118e0565b9150611dcf82611d68565b604082019050919050565b60006020820190508181036000830152611df381611db7565b9050919050565b7f596f7520646f6e2774206861766520616e797468696e6720647565206174207460008201527f6869732074696d652e0000000000000000000000000000000000000000000000602082015250565b6000611e566029836118e0565b9150611e6182611dfa565b604082019050919050565b60006020820190508181036000830152611e8581611e49565b9050919050565b7f596f7520646f6e2774207365742074686520636f727265637420616d6f756e7460008201527f20286d75737420626520657175616c20746f20796f7572206475652900000000602082015250565b6000611ee8603c836118e0565b9150611ef382611e8c565b604082019050919050565b60006020820190508181036000830152611f1781611edb565b9050919050565b7f596f7520646f6e27742068617665206120736e6f77626f6172642e0000000000600082015250565b6000611f54601b836118e0565b9150611f5f82611f1e565b602082019050919050565b60006020820190508181036000830152611f8381611f47565b9050919050565b7f4e487b7100000000000000000000000000000000000000000000000000000000600052601160045260246000fd5b6000611fc48261186a565b9150611fcf8361186a565b9250828203905081811115611fe757611fe6611f8a565b5b92915050565b7f596f7520617265207374696c6c2072656e74696e67206120736e6f77626f617260008201527f6400000000000000000000000000000000000000000000000000000000000000602082015250565b60006120496021836118e0565b915061205482611fed565b604082019050919050565b600060208201905081810360008301526120788161203c565b9050919050565b7f596f7520617265206e6f742072656e74696e67206120736e6f77626f61726400600082015250565b60006120b5601f836118e0565b91506120c08261207f565b602082019050919050565b600060208201905081810360008301526120e4816120a8565b9050919050565b7f4e487b7100000000000000000000000000000000000000000000000000000000600052602260045260246000fd5b6000600282049050600182168061213257607f821691505b602082108103612145576121446120eb565b5b50919050565b7f596f75206861766520612070656e64696e67207061796d656e742e0000000000600082015250565b6000612181601b836118e0565b915061218c8261214b565b602082019050919050565b600060208201905081810360008301526121b081612174565b9050919050565b7f596f752063616e27742072656e7420617420746869732074696d652e00000000600082015250565b60006121ed601c836118e0565b91506121f8826121b7565b602082019050919050565b6000602082019050818103600083015261221c816121e0565b9050919050565b60008190508160005260206000209050919050565b60006020601f8301049050919050565b600082821b905092915050565b6000600883026122857fffffffffffffffffffffffffffffffffffffffffffffffffffffffffffffffff82612248565b61228f8683612248565b95508019841693508086168417925050509392505050565b6000819050919050565b60006122cc6122c76122c28461186a565b6122a7565b61186a565b9050919050565b6000819050919050565b6122e6836122b1565b6122fa6122f2826122d3565b848454612255565b825550505050565b600090565b61230f612302565b61231a8184846122dd565b505050565b5b8181101561233e57612333600082612307565b600181019050612320565b5050565b601f8211156123835761235481612223565b61235d84612238565b8101602085101561236c578190505b61238061237885612238565b83018261231f565b50505b505050565b600082821c905092915050565b60006123a660001984600802612388565b1980831691505092915050565b60006123bf8383612395565b9150826002028217905092915050565b6123d8826118d5565b67ffffffffffffffff8111156123f1576123f0611991565b5b6123fb825461211a565b612406828285612342565b600060209050601f8311600181146124395760008415612427578287015190505b61243185826123b3565b865550612499565b601f19841661244786612223565b60005b8281101561246f5784890151825560018201915060208501945060208101905061244a565b8683101561248c5784890151612488601f891682612395565b8355505b6001600288020188555050505b505050505050565b7f596f7520616c7265616479206861766520616e206163636f756e742e00000000600082015250565b60006124d7601c836118e0565b91506124e2826124a1565b602082019050919050565b60006020820190508181036000830152612506816124ca565b9050919050565b7f4e487b7100000000000000000000000000000000000000000000000000000000600052601260045260246000fd5b60006125478261186a565b91506125528361186a565b9250826125625761256161250d565b5b828204905092915050565b600061257882611b9b565b915061258383611b9b565b9250816fffffffffffffffffffffffffffffffff04831182151516156125ac576125ab611f8a565b5b82820290509291505056fea264697066735822122017958e8e9d18915174977647959d04dbda3f07064a24a803b6ef65ed09d9ece564736f6c63430008100033",
  "linkReferences": {},
  "deployedLinkReferences": {}
}