{
  "_format": "hh-sol-artifact-1",
  "contractName": "Chainboard",
  "sourceName": "contracts/Chainboard.sol",
  "abi": [
    {
      "inputs": [],
      "stateMutability": "nonpayable",
      "type": "constructor"
    },
    {
      "inputs": [
        {
          "internalType": "address payable",
          "name": "walletAddress",
          "type": "address"
        },
        {
          "internalType": "bool",
          "name": "canRent",
          "type": "bool"
        },
        {
          "internalType": "bool",
          "name": "isRenting",
          "type": "bool"
        },
        {
          "internalType": "uint256",
          "name": "balance",
          "type": "uint256"
        },
        {
          "internalType": "uint256",
          "name": "due",
          "type": "uint256"
        },
        {
          "internalType": "uint256",
          "name": "start",
          "type": "uint256"
        },
        {
          "internalType": "uint256",
          "name": "end",
          "type": "uint256"
        }
      ],
      "name": "addRenter",
      "outputs": [],
      "stateMutability": "nonpayable",
      "type": "function"
    },
    {
      "inputs": [],
      "name": "balanceOf",
      "outputs": [
        {
          "internalType": "uint256",
          "name": "",
          "type": "uint256"
        }
      ],
      "stateMutability": "view",
      "type": "function"
    },
    {
      "inputs": [],
      "name": "balanceOfOwner",
      "outputs": [
        {
          "internalType": "uint256",
          "name": "",
          "type": "uint256"
        }
      ],
      "stateMutability": "view",
      "type": "function"
    },
    {
      "inputs": [
        {
          "internalType": "address",
          "name": "walletAddress",
          "type": "address"
        }
      ],
      "name": "balanceOfRenter",
      "outputs": [
        {
          "internalType": "uint256",
          "name": "",
          "type": "uint256"
        }
      ],
      "stateMutability": "view",
      "type": "function"
    },
    {
      "inputs": [
        {
          "internalType": "address",
          "name": "walletAddress",
          "type": "address"
        }
      ],
      "name": "canRentSnowboard",
      "outputs": [
        {
          "internalType": "bool",
          "name": "",
          "type": "bool"
        }
      ],
      "stateMutability": "view",
      "type": "function"
    },
    {
      "inputs": [
        {
          "internalType": "address",
          "name": "walletAddress",
          "type": "address"
        },
        {
          "internalType": "uint256",
          "name": "snowboardPrice",
          "type": "uint256"
        }
      ],
      "name": "checkIn",
      "outputs": [],
      "stateMutability": "nonpayable",
      "type": "function"
    },
    {
      "inputs": [
        {
          "internalType": "address",
          "name": "walletAddress",
          "type": "address"
        }
      ],
      "name": "checkOut",
      "outputs": [],
      "stateMutability": "nonpayable",
      "type": "function"
    },
    {
      "inputs": [
        {
          "internalType": "address",
          "name": "walletAddress",
          "type": "address"
        }
      ],
      "name": "deposit",
      "outputs": [],
      "stateMutability": "payable",
      "type": "function"
    },
    {
      "inputs": [
        {
          "internalType": "address",
          "name": "walletAddress",
          "type": "address"
        }
      ],
      "name": "getActualDuration",
      "outputs": [
        {
          "internalType": "uint256",
          "name": "",
          "type": "uint256"
        }
      ],
      "stateMutability": "view",
      "type": "function"
    },
    {
      "inputs": [
        {
          "internalType": "address",
          "name": "walletAddress",
          "type": "address"
        }
      ],
      "name": "getDue",
      "outputs": [
        {
          "internalType": "uint256",
          "name": "",
          "type": "uint256"
        }
      ],
      "stateMutability": "view",
      "type": "function"
    },
    {
      "inputs": [
        {
          "internalType": "address",
          "name": "walletAddress",
          "type": "address"
        }
      ],
      "name": "getRenterStatus",
      "outputs": [
        {
          "internalType": "bool",
          "name": "canRent",
          "type": "bool"
        },
        {
          "internalType": "bool",
          "name": "isRenting",
          "type": "bool"
        }
      ],
      "stateMutability": "view",
      "type": "function"
    },
    {
      "inputs": [
        {
          "internalType": "address",
          "name": "walletAddress",
          "type": "address"
        }
      ],
      "name": "getTotalDuration",
      "outputs": [
        {
          "internalType": "uint256",
          "name": "",
          "type": "uint256"
        }
      ],
      "stateMutability": "view",
      "type": "function"
    },
    {
      "inputs": [],
      "name": "isOwner",
      "outputs": [
        {
          "internalType": "bool",
          "name": "",
          "type": "bool"
        }
      ],
      "stateMutability": "view",
      "type": "function"
    },
    {
      "inputs": [
        {
          "internalType": "address",
          "name": "walletAddress",
          "type": "address"
        },
        {
          "internalType": "uint256",
          "name": "amount",
          "type": "uint256"
        }
      ],
      "name": "makePayment",
      "outputs": [],
      "stateMutability": "nonpayable",
      "type": "function"
    },
    {
      "inputs": [
        {
          "internalType": "address",
          "name": "walletAddress",
          "type": "address"
        }
      ],
      "name": "renterExists",
      "outputs": [
        {
          "internalType": "bool",
          "name": "",
          "type": "bool"
        }
      ],
      "stateMutability": "view",
      "type": "function"
    },
    {
      "inputs": [
        {
          "internalType": "address",
          "name": "",
          "type": "address"
        }
      ],
      "name": "renters",
      "outputs": [
        {
          "internalType": "address payable",
          "name": "walletAddress",
          "type": "address"
        },
        {
          "internalType": "bool",
          "name": "canRent",
          "type": "bool"
        },
        {
          "internalType": "bool",
          "name": "isRenting",
          "type": "bool"
        },
        {
          "internalType": "uint256",
          "name": "balance",
          "type": "uint256"
        },
        {
          "internalType": "uint256",
          "name": "due",
          "type": "uint256"
        },
        {
          "internalType": "uint256",
          "name": "start",
          "type": "uint256"
        },
        {
          "internalType": "uint256",
          "name": "end",
          "type": "uint256"
        }
      ],
      "stateMutability": "view",
      "type": "function"
    },
    {
      "inputs": [],
      "name": "withdrawOwnerBalance",
      "outputs": [],
      "stateMutability": "payable",
      "type": "function"
    }
  ],
  "bytecode": "0x608060405234801561001057600080fd5b50336000806101000a81548173ffffffffffffffffffffffffffffffffffffffff021916908373ffffffffffffffffffffffffffffffffffffffff160217905550611fb2806100606000396000f3fe6080604052600436106100fe5760003560e01c80638f32d59b11610095578063c6d2a84611610064578063c6d2a84614610340578063ce12482b1461037d578063f340fa01146103bb578063f98cf07c146103d7578063f9d8241c14610400576100fe565b80638f32d59b146102a5578063941b80ac146102d0578063aad1b617146102da578063b53c23d314610317576100fe565b8063644a1370116100d1578063644a1370146101d1578063722713f7146102145780638960a4f91461023f5780638d23caa01461027c576100fe565b80632e66c69a1461010357806337da38821461012c57806341ba6e89146101695780634975d202146101a6575b600080fd5b34801561010f57600080fd5b5061012a600480360381019061012591906117e8565b61043d565b005b34801561013857600080fd5b50610153600480360381019061014e9190611828565b6105f3565b6040516101609190611864565b60405180910390f35b34801561017557600080fd5b50610190600480360381019061018b9190611828565b610768565b60405161019d9190611864565b60405180910390f35b3480156101b257600080fd5b506101bb61093d565b6040516101c89190611864565b60405180910390f35b3480156101dd57600080fd5b506101f860048036038101906101f39190611828565b6109d6565b60405161020b97969594939291906118bb565b60405180910390f35b34801561022057600080fd5b50610229610a52565b6040516102369190611864565b60405180910390f35b34801561024b57600080fd5b5061026660048036038101906102619190611828565b610a5a565b604051610273919061192a565b60405180910390f35b34801561028857600080fd5b506102a3600480360381019061029e9190611828565b610b23565b005b3480156102b157600080fd5b506102ba610dae565b6040516102c7919061192a565b60405180910390f35b6102d8610e04565b005b3480156102e657600080fd5b5061030160048036038101906102fc9190611828565b610e77565b60405161030e9190611864565b60405180910390f35b34801561032357600080fd5b5061033e6004803603810190610339919061199d565b610f33565b005b34801561034c57600080fd5b5061036760048036038101906103629190611828565b61107a565b6040516103749190611864565b60405180910390f35b34801561038957600080fd5b506103a4600480360381019061039f9190611828565b6110c6565b6040516103b2929190611a3f565b60405180910390f35b6103d560048036038101906103d09190611828565b6111e2565b005b3480156103e357600080fd5b506103fe60048036038101906103f991906117e8565b6112ae565b005b34801561040c57600080fd5b5061042760048036038101906104229190611828565b6115d0565b604051610434919061192a565b60405180910390f35b818073ffffffffffffffffffffffffffffffffffffffff163373ffffffffffffffffffffffffffffffffffffffff16146104ac576040517f08c379a00000000000000000000000000000000000000000000000000000000081526004016104a390611aeb565b60405180910390fd5b60011515600260008573ffffffffffffffffffffffffffffffffffffffff1673ffffffffffffffffffffffffffffffffffffffff16815260200190815260200160002060000160159054906101000a900460ff16151514610542576040517f08c379a000000000000000000000000000000000000000000000000000000000815260040161053990611b57565b60405180910390fd5b6000600260008573ffffffffffffffffffffffffffffffffffffffff1673ffffffffffffffffffffffffffffffffffffffff16815260200190815260200160002060000160156101000a81548160ff02191690831515021790555042600260008573ffffffffffffffffffffffffffffffffffffffff1673ffffffffffffffffffffffffffffffffffffffff168152602001908152602001600020600401819055506105ee83836116eb565b505050565b6000818073ffffffffffffffffffffffffffffffffffffffff163373ffffffffffffffffffffffffffffffffffffffff1614610664576040517f08c379a000000000000000000000000000000000000000000000000000000000815260040161065b90611aeb565b60405180910390fd5b60011515600260008573ffffffffffffffffffffffffffffffffffffffff1673ffffffffffffffffffffffffffffffffffffffff16815260200190815260200160002060000160159054906101000a900460ff161515146106fa576040517f08c379a00000000000000000000000000000000000000000000000000000000081526004016106f190611b57565b60405180910390fd5b6000600260008573ffffffffffffffffffffffffffffffffffffffff1673ffffffffffffffffffffffffffffffffffffffff168152602001908152602001600020600301544261074a9190611ba6565b90506000603c8261075b9190611c09565b9050809350505050919050565b6000818073ffffffffffffffffffffffffffffffffffffffff163373ffffffffffffffffffffffffffffffffffffffff16146107d9576040517f08c379a00000000000000000000000000000000000000000000000000000000081526004016107d090611aeb565b60405180910390fd5b6000600260008573ffffffffffffffffffffffffffffffffffffffff1673ffffffffffffffffffffffffffffffffffffffff16815260200190815260200160002060030154148061086c57506000600260008573ffffffffffffffffffffffffffffffffffffffff1673ffffffffffffffffffffffffffffffffffffffff16815260200190815260200160002060040154145b1561087a5760009150610937565b6000600260008573ffffffffffffffffffffffffffffffffffffffff1673ffffffffffffffffffffffffffffffffffffffff16815260200190815260200160002060030154600260008673ffffffffffffffffffffffffffffffffffffffff1673ffffffffffffffffffffffffffffffffffffffff1681526020019081526020016000206004015461090c9190611ba6565b9050603c8110610931576000603c826109259190611c09565b90508093505050610937565b60019250505b50919050565b60008060009054906101000a900473ffffffffffffffffffffffffffffffffffffffff1673ffffffffffffffffffffffffffffffffffffffff163373ffffffffffffffffffffffffffffffffffffffff16146109ce576040517f08c379a00000000000000000000000000000000000000000000000000000000081526004016109c590611cac565b60405180910390fd5b600154905090565b60026020528060005260406000206000915090508060000160009054906101000a900473ffffffffffffffffffffffffffffffffffffffff16908060000160149054906101000a900460ff16908060000160159054906101000a900460ff16908060010154908060020154908060030154908060040154905087565b600047905090565b6000818073ffffffffffffffffffffffffffffffffffffffff163373ffffffffffffffffffffffffffffffffffffffff1614610acb576040517f08c379a0000000000000000000000000000000000000000000000000000000008152600401610ac290611aeb565b60405180910390fd5b600260008473ffffffffffffffffffffffffffffffffffffffff1673ffffffffffffffffffffffffffffffffffffffff16815260200190815260200160002060000160149054906101000a900460ff16915050919050565b808073ffffffffffffffffffffffffffffffffffffffff163373ffffffffffffffffffffffffffffffffffffffff1614610b92576040517f08c379a0000000000000000000000000000000000000000000000000000000008152600401610b8990611aeb565b60405180910390fd5b6000600260008473ffffffffffffffffffffffffffffffffffffffff1673ffffffffffffffffffffffffffffffffffffffff1681526020019081526020016000206002015414610c17576040517f08c379a0000000000000000000000000000000000000000000000000000000008152600401610c0e90611d18565b60405180910390fd5b60011515600260008473ffffffffffffffffffffffffffffffffffffffff1673ffffffffffffffffffffffffffffffffffffffff16815260200190815260200160002060000160149054906101000a900460ff16151514610cad576040517f08c379a0000000000000000000000000000000000000000000000000000000008152600401610ca490611d84565b60405180910390fd5b6001600260008473ffffffffffffffffffffffffffffffffffffffff1673ffffffffffffffffffffffffffffffffffffffff16815260200190815260200160002060000160156101000a81548160ff02191690831515021790555042600260008473ffffffffffffffffffffffffffffffffffffffff1673ffffffffffffffffffffffffffffffffffffffff168152602001908152602001600020600301819055506000600260008473ffffffffffffffffffffffffffffffffffffffff1673ffffffffffffffffffffffffffffffffffffffff16815260200190815260200160002060000160146101000a81548160ff0219169083151502179055505050565b60003373ffffffffffffffffffffffffffffffffffffffff1660008054906101000a900473ffffffffffffffffffffffffffffffffffffffff1673ffffffffffffffffffffffffffffffffffffffff1614905090565b60008054906101000a900473ffffffffffffffffffffffffffffffffffffffff1673ffffffffffffffffffffffffffffffffffffffff166108fc6001549081150290604051600060405180830381858888f19350505050158015610e6c573d6000803e3d6000fd5b506000600181905550565b6000818073ffffffffffffffffffffffffffffffffffffffff163373ffffffffffffffffffffffffffffffffffffffff1614610ee8576040517f08c379a0000000000000000000000000000000000000000000000000000000008152600401610edf90611aeb565b60405180910390fd5b600260008473ffffffffffffffffffffffffffffffffffffffff1673ffffffffffffffffffffffffffffffffffffffff16815260200190815260200160002060010154915050919050565b6040518060e001604052808873ffffffffffffffffffffffffffffffffffffffff1681526020018715158152602001861515815260200185815260200184815260200183815260200182815250600260008973ffffffffffffffffffffffffffffffffffffffff1673ffffffffffffffffffffffffffffffffffffffff16815260200190815260200160002060008201518160000160006101000a81548173ffffffffffffffffffffffffffffffffffffffff021916908373ffffffffffffffffffffffffffffffffffffffff16021790555060208201518160000160146101000a81548160ff02191690831515021790555060408201518160000160156101000a81548160ff021916908315150217905550606082015181600101556080820151816002015560a0820151816003015560c0820151816004015590505050505050505050565b6000600260008373ffffffffffffffffffffffffffffffffffffffff1673ffffffffffffffffffffffffffffffffffffffff168152602001908152602001600020600201549050919050565b600080828073ffffffffffffffffffffffffffffffffffffffff163373ffffffffffffffffffffffffffffffffffffffff1614611138576040517f08c379a000000000000000000000000000000000000000000000000000000000815260040161112f90611aeb565b60405180910390fd5b600260008573ffffffffffffffffffffffffffffffffffffffff1673ffffffffffffffffffffffffffffffffffffffff16815260200190815260200160002060000160149054906101000a900460ff169250600260008573ffffffffffffffffffffffffffffffffffffffff1673ffffffffffffffffffffffffffffffffffffffff16815260200190815260200160002060000160159054906101000a900460ff16915050915091565b808073ffffffffffffffffffffffffffffffffffffffff163373ffffffffffffffffffffffffffffffffffffffff1614611251576040517f08c379a000000000000000000000000000000000000000000000000000000000815260040161124890611aeb565b60405180910390fd5b34600260008473ffffffffffffffffffffffffffffffffffffffff1673ffffffffffffffffffffffffffffffffffffffff16815260200190815260200160002060010160008282546112a39190611da4565b925050819055505050565b818073ffffffffffffffffffffffffffffffffffffffff163373ffffffffffffffffffffffffffffffffffffffff161461131d576040517f08c379a000000000000000000000000000000000000000000000000000000000815260040161131490611aeb565b60405180910390fd5b6000600260008573ffffffffffffffffffffffffffffffffffffffff1673ffffffffffffffffffffffffffffffffffffffff16815260200190815260200160002060020154116113a2576040517f08c379a000000000000000000000000000000000000000000000000000000000815260040161139990611e4a565b60405180910390fd5b81600260008573ffffffffffffffffffffffffffffffffffffffff1673ffffffffffffffffffffffffffffffffffffffff1681526020019081526020016000206001015411611426576040517f08c379a000000000000000000000000000000000000000000000000000000000815260040161141d90611f02565b60405180910390fd5b81600260008573ffffffffffffffffffffffffffffffffffffffff1673ffffffffffffffffffffffffffffffffffffffff16815260200190815260200160002060010160008282546114789190611ba6565b9250508190555081600160008282546114919190611da4565b925050819055506001600260008573ffffffffffffffffffffffffffffffffffffffff1673ffffffffffffffffffffffffffffffffffffffff16815260200190815260200160002060000160146101000a81548160ff0219169083151502179055506000600260008573ffffffffffffffffffffffffffffffffffffffff1673ffffffffffffffffffffffffffffffffffffffff168152602001908152602001600020600201819055506000600260008573ffffffffffffffffffffffffffffffffffffffff1673ffffffffffffffffffffffffffffffffffffffff168152602001908152602001600020600301819055506000600260008573ffffffffffffffffffffffffffffffffffffffff1673ffffffffffffffffffffffffffffffffffffffff16815260200190815260200160002060040181905550505050565b6000818073ffffffffffffffffffffffffffffffffffffffff163373ffffffffffffffffffffffffffffffffffffffff1614611641576040517f08c379a000000000000000000000000000000000000000000000000000000000815260040161163890611aeb565b60405180910390fd5b600073ffffffffffffffffffffffffffffffffffffffff16600260008573ffffffffffffffffffffffffffffffffffffffff1673ffffffffffffffffffffffffffffffffffffffff16815260200190815260200160002060000160009054906101000a900473ffffffffffffffffffffffffffffffffffffffff1673ffffffffffffffffffffffffffffffffffffffff16146116e057600191506116e5565b600091505b50919050565b60006116f683610768565b905081816117049190611f22565b600260008573ffffffffffffffffffffffffffffffffffffffff1673ffffffffffffffffffffffffffffffffffffffff16815260200190815260200160002060020181905550505050565b600080fd5b600073ffffffffffffffffffffffffffffffffffffffff82169050919050565b600061177f82611754565b9050919050565b61178f81611774565b811461179a57600080fd5b50565b6000813590506117ac81611786565b92915050565b6000819050919050565b6117c5816117b2565b81146117d057600080fd5b50565b6000813590506117e2816117bc565b92915050565b600080604083850312156117ff576117fe61174f565b5b600061180d8582860161179d565b925050602061181e858286016117d3565b9150509250929050565b60006020828403121561183e5761183d61174f565b5b600061184c8482850161179d565b91505092915050565b61185e816117b2565b82525050565b60006020820190506118796000830184611855565b92915050565b600061188a82611754565b9050919050565b61189a8161187f565b82525050565b60008115159050919050565b6118b5816118a0565b82525050565b600060e0820190506118d0600083018a611891565b6118dd60208301896118ac565b6118ea60408301886118ac565b6118f76060830187611855565b6119046080830186611855565b61191160a0830185611855565b61191e60c0830184611855565b98975050505050505050565b600060208201905061193f60008301846118ac565b92915050565b61194e8161187f565b811461195957600080fd5b50565b60008135905061196b81611945565b92915050565b61197a816118a0565b811461198557600080fd5b50565b60008135905061199781611971565b92915050565b600080600080600080600060e0888a0312156119bc576119bb61174f565b5b60006119ca8a828b0161195c565b97505060206119db8a828b01611988565b96505060406119ec8a828b01611988565b95505060606119fd8a828b016117d3565b9450506080611a0e8a828b016117d3565b93505060a0611a1f8a828b016117d3565b92505060c0611a308a828b016117d3565b91505092959891949750929550565b6000604082019050611a5460008301856118ac565b611a6160208301846118ac565b9392505050565b600082825260208201905092915050565b7f596f752063616e206f6e6c79206d616e61676520796f7572206163636f756e7460008201527f2e00000000000000000000000000000000000000000000000000000000000000602082015250565b6000611ad5602183611a68565b9150611ae082611a79565b604082019050919050565b60006020820190508181036000830152611b0481611ac8565b9050919050565b7f596f7520646f6e27742068617665206120736e6f77626f6172642e0000000000600082015250565b6000611b41601b83611a68565b9150611b4c82611b0b565b602082019050919050565b60006020820190508181036000830152611b7081611b34565b9050919050565b7f4e487b7100000000000000000000000000000000000000000000000000000000600052601160045260246000fd5b6000611bb1826117b2565b9150611bbc836117b2565b9250828203905081811115611bd457611bd3611b77565b5b92915050565b7f4e487b7100000000000000000000000000000000000000000000000000000000600052601260045260246000fd5b6000611c14826117b2565b9150611c1f836117b2565b925082611c2f57611c2e611bda565b5b828204905092915050565b7f596f7520617265206e6f7420616c6c6f77656420746f2061636365737320746860008201527f69732e0000000000000000000000000000000000000000000000000000000000602082015250565b6000611c96602383611a68565b9150611ca182611c3a565b604082019050919050565b60006020820190508181036000830152611cc581611c89565b9050919050565b7f596f75206861766520612070656e64696e672062616c616e63652e0000000000600082015250565b6000611d02601b83611a68565b9150611d0d82611ccc565b602082019050919050565b60006020820190508181036000830152611d3181611cf5565b9050919050565b7f596f752063616e27742072656e7420617420746869732074696d652e00000000600082015250565b6000611d6e601c83611a68565b9150611d7982611d38565b602082019050919050565b60006020820190508181036000830152611d9d81611d61565b9050919050565b6000611daf826117b2565b9150611dba836117b2565b9250828201905080821115611dd257611dd1611b77565b5b92915050565b7f596f7520646f6e2774206861766520616e797468696e6720647565206174207460008201527f6869732074696d652e0000000000000000000000000000000000000000000000602082015250565b6000611e34602983611a68565b9150611e3f82611dd8565b604082019050919050565b60006020820190508181036000830152611e6381611e27565b9050919050565b7f596f7520646f6e2774206861766520656e6f7567682066756e647320746f206360008201527f6f766572207061796d656e742e20506c65617365206d616b652061206465706f60208201527f7369742066697273742e00000000000000000000000000000000000000000000604082015250565b6000611eec604a83611a68565b9150611ef782611e6a565b606082019050919050565b60006020820190508181036000830152611f1b81611edf565b9050919050565b6000611f2d826117b2565b9150611f38836117b2565b9250817fffffffffffffffffffffffffffffffffffffffffffffffffffffffffffffffff0483118215151615611f7157611f70611b77565b5b82820290509291505056fea2646970667358221220e85bc46e8174f2c6daac04d5c173646c49af19f8bbd7820374340aac95e8220864736f6c63430008100033",
  "linkReferences": {},
  "deployedLinkReferences": {}
}