{
  "_format": "hh-sol-artifact-1",
  "contractName": "Chainboard",
  "sourceName": "contracts/Chainboard.sol",
  "abi": [
    {
      "inputs": [],
      "stateMutability": "nonpayable",
      "type": "constructor"
    },
    {
      "inputs": [
        {
          "internalType": "address",
          "name": "walletAddress",
          "type": "address"
        },
        {
          "internalType": "bool",
          "name": "canRent",
          "type": "bool"
        },
        {
          "internalType": "bool",
          "name": "isRenting",
          "type": "bool"
        },
        {
          "internalType": "string",
          "name": "level",
          "type": "string"
        },
        {
          "internalType": "uint8",
          "name": "size",
          "type": "uint8"
        },
        {
          "internalType": "uint128",
          "name": "due",
          "type": "uint128"
        },
        {
          "internalType": "uint256",
          "name": "start",
          "type": "uint256"
        },
        {
          "internalType": "uint256",
          "name": "end",
          "type": "uint256"
        }
      ],
      "name": "addRenter",
      "outputs": [],
      "stateMutability": "nonpayable",
      "type": "function"
    },
    {
      "inputs": [
        {
          "internalType": "address",
          "name": "walletAddress",
          "type": "address"
        },
        {
          "internalType": "uint128",
          "name": "snowboardPrice",
          "type": "uint128"
        }
      ],
      "name": "checkIn",
      "outputs": [],
      "stateMutability": "nonpayable",
      "type": "function"
    },
    {
      "inputs": [
        {
          "internalType": "address",
          "name": "walletAddress",
          "type": "address"
        },
        {
          "internalType": "string",
          "name": "level",
          "type": "string"
        },
        {
          "internalType": "uint8",
          "name": "size",
          "type": "uint8"
        }
      ],
      "name": "checkOut",
      "outputs": [],
      "stateMutability": "nonpayable",
      "type": "function"
    },
    {
      "inputs": [
        {
          "internalType": "address",
          "name": "walletAddress",
          "type": "address"
        }
      ],
      "name": "getActualDuration",
      "outputs": [
        {
          "internalType": "uint256",
          "name": "",
          "type": "uint256"
        }
      ],
      "stateMutability": "view",
      "type": "function"
    },
    {
      "inputs": [
        {
          "internalType": "address",
          "name": "walletAddress",
          "type": "address"
        }
      ],
      "name": "getDue",
      "outputs": [
        {
          "internalType": "uint256",
          "name": "",
          "type": "uint256"
        }
      ],
      "stateMutability": "view",
      "type": "function"
    },
    {
      "inputs": [
        {
          "internalType": "address",
          "name": "walletAddress",
          "type": "address"
        }
      ],
      "name": "getLevel",
      "outputs": [
        {
          "internalType": "string",
          "name": "level",
          "type": "string"
        }
      ],
      "stateMutability": "view",
      "type": "function"
    },
    {
      "inputs": [
        {
          "internalType": "address",
          "name": "walletAddress",
          "type": "address"
        }
      ],
      "name": "getRenterStatus",
      "outputs": [
        {
          "internalType": "bool",
          "name": "canRent",
          "type": "bool"
        },
        {
          "internalType": "bool",
          "name": "isRenting",
          "type": "bool"
        }
      ],
      "stateMutability": "view",
      "type": "function"
    },
    {
      "inputs": [
        {
          "internalType": "address",
          "name": "walletAddress",
          "type": "address"
        }
      ],
      "name": "getSize",
      "outputs": [
        {
          "internalType": "uint8",
          "name": "size",
          "type": "uint8"
        }
      ],
      "stateMutability": "view",
      "type": "function"
    },
    {
      "inputs": [
        {
          "internalType": "address",
          "name": "walletAddress",
          "type": "address"
        }
      ],
      "name": "getTotalDuration",
      "outputs": [
        {
          "internalType": "uint256",
          "name": "",
          "type": "uint256"
        }
      ],
      "stateMutability": "view",
      "type": "function"
    },
    {
      "inputs": [
        {
          "internalType": "address",
          "name": "walletAddress",
          "type": "address"
        }
      ],
      "name": "makePayment",
      "outputs": [],
      "stateMutability": "payable",
      "type": "function"
    },
    {
      "inputs": [
        {
          "internalType": "address",
          "name": "walletAddress",
          "type": "address"
        }
      ],
      "name": "renterExists",
      "outputs": [
        {
          "internalType": "bool",
          "name": "",
          "type": "bool"
        }
      ],
      "stateMutability": "view",
      "type": "function"
    }
  ],
  "bytecode": "0x608060405234801561001057600080fd5b50336000806101000a81548173ffffffffffffffffffffffffffffffffffffffff021916908373ffffffffffffffffffffffffffffffffffffffff160217905550612704806100606000396000f3fe60806040526004361061009c5760003560e01c80638c2e0011116100645780638c2e0011146101b1578063c6d2a846146101da578063ce12482b14610217578063d1062f6314610255578063daee42531461027e578063f9d8241c146102a75761009c565b8063300be4fc146100a157806337da3882146100bd57806341ba6e89146100fa578063504f167114610137578063817c896614610174575b600080fd5b6100bb60048036038101906100b691906118c2565b6102e4565b005b3480156100c957600080fd5b506100e460048036038101906100df91906118c2565b610687565b6040516100f19190611908565b60405180910390f35b34801561010657600080fd5b50610121600480360381019061011c91906118c2565b6107f2565b60405161012e9190611908565b60405180910390f35b34801561014357600080fd5b5061015e600480360381019061015991906118c2565b610aa9565b60405161016b919061193f565b60405180910390f35b34801561018057600080fd5b5061019b600480360381019061019691906118c2565b610b72565b6040516101a891906119ea565b60405180910390f35b3480156101bd57600080fd5b506101d860048036038101906101d39190611b6d565b610cb6565b005b3480156101e657600080fd5b5061020160048036038101906101fc91906118c2565b61101b565b60405161020e9190611908565b60405180910390f35b34801561022357600080fd5b5061023e600480360381019061023991906118c2565b61118a565b60405161024c929190611bf7565b60405180910390f35b34801561026157600080fd5b5061027c60048036038101906102779190611c68565b6112a6565b005b34801561028a57600080fd5b506102a560048036038101906102a09190611d00565b61145c565b005b3480156102b357600080fd5b506102ce60048036038101906102c991906118c2565b611671565b6040516102db9190611dd2565b60405180910390f35b808073ffffffffffffffffffffffffffffffffffffffff163373ffffffffffffffffffffffffffffffffffffffff1614610353576040517f08c379a000000000000000000000000000000000000000000000000000000000815260040161034a90611e5f565b60405180910390fd5b6000600160008473ffffffffffffffffffffffffffffffffffffffff1673ffffffffffffffffffffffffffffffffffffffff16815260200190815260200160002060020160019054906101000a90046fffffffffffffffffffffffffffffffff166fffffffffffffffffffffffffffffffff1611610406576040517f08c379a00000000000000000000000000000000000000000000000000000000081526004016103fd90611ef1565b60405180910390fd5b34600160008473ffffffffffffffffffffffffffffffffffffffff1673ffffffffffffffffffffffffffffffffffffffff16815260200190815260200160002060020160019054906101000a90046fffffffffffffffffffffffffffffffff166fffffffffffffffffffffffffffffffff16146104b8576040517f08c379a00000000000000000000000000000000000000000000000000000000081526004016104af90611f83565b60405180910390fd5b60008054906101000a900473ffffffffffffffffffffffffffffffffffffffff1673ffffffffffffffffffffffffffffffffffffffff166108fc349081150290604051600060405180830381858888f1935050505015801561051e573d6000803e3d6000fd5b5060018060008473ffffffffffffffffffffffffffffffffffffffff1673ffffffffffffffffffffffffffffffffffffffff16815260200190815260200160002060000160146101000a81548160ff0219169083151502179055506000600160008473ffffffffffffffffffffffffffffffffffffffff1673ffffffffffffffffffffffffffffffffffffffff16815260200190815260200160002060020160016101000a8154816fffffffffffffffffffffffffffffffff02191690836fffffffffffffffffffffffffffffffff1602179055506000600160008473ffffffffffffffffffffffffffffffffffffffff1673ffffffffffffffffffffffffffffffffffffffff168152602001908152602001600020600301819055506000600160008473ffffffffffffffffffffffffffffffffffffffff1673ffffffffffffffffffffffffffffffffffffffff168152602001908152602001600020600401819055505050565b6000818073ffffffffffffffffffffffffffffffffffffffff163373ffffffffffffffffffffffffffffffffffffffff16146106f8576040517f08c379a00000000000000000000000000000000000000000000000000000000081526004016106ef90611e5f565b60405180910390fd5b60011515600160008573ffffffffffffffffffffffffffffffffffffffff1673ffffffffffffffffffffffffffffffffffffffff16815260200190815260200160002060000160159054906101000a900460ff1615151461078e576040517f08c379a000000000000000000000000000000000000000000000000000000000815260040161078590611fef565b60405180910390fd5b6000600160008573ffffffffffffffffffffffffffffffffffffffff1673ffffffffffffffffffffffffffffffffffffffff16815260200190815260200160002060030154426107de919061203e565b90506107e98161178c565b92505050919050565b6000818073ffffffffffffffffffffffffffffffffffffffff163373ffffffffffffffffffffffffffffffffffffffff1614610863576040517f08c379a000000000000000000000000000000000000000000000000000000000815260040161085a90611e5f565b60405180910390fd5b60001515600160008573ffffffffffffffffffffffffffffffffffffffff1673ffffffffffffffffffffffffffffffffffffffff16815260200190815260200160002060000160159054906101000a900460ff161515146108f9576040517f08c379a00000000000000000000000000000000000000000000000000000000081526004016108f0906120e4565b60405180910390fd5b6000600160008573ffffffffffffffffffffffffffffffffffffffff1673ffffffffffffffffffffffffffffffffffffffff168152602001908152602001600020600301541161097e576040517f08c379a000000000000000000000000000000000000000000000000000000000815260040161097590612150565b60405180910390fd5b6000600160008573ffffffffffffffffffffffffffffffffffffffff1673ffffffffffffffffffffffffffffffffffffffff1681526020019081526020016000206004015411610a03576040517f08c379a00000000000000000000000000000000000000000000000000000000081526004016109fa906120e4565b60405180910390fd5b6000600160008573ffffffffffffffffffffffffffffffffffffffff1673ffffffffffffffffffffffffffffffffffffffff16815260200190815260200160002060030154600160008673ffffffffffffffffffffffffffffffffffffffff1673ffffffffffffffffffffffffffffffffffffffff16815260200190815260200160002060040154610a95919061203e565b9050610aa08161178c565b92505050919050565b6000818073ffffffffffffffffffffffffffffffffffffffff163373ffffffffffffffffffffffffffffffffffffffff1614610b1a576040517f08c379a0000000000000000000000000000000000000000000000000000000008152600401610b1190611e5f565b60405180910390fd5b600160008473ffffffffffffffffffffffffffffffffffffffff1673ffffffffffffffffffffffffffffffffffffffff16815260200190815260200160002060020160009054906101000a900460ff16915050919050565b6060818073ffffffffffffffffffffffffffffffffffffffff163373ffffffffffffffffffffffffffffffffffffffff1614610be3576040517f08c379a0000000000000000000000000000000000000000000000000000000008152600401610bda90611e5f565b60405180910390fd5b600160008473ffffffffffffffffffffffffffffffffffffffff1673ffffffffffffffffffffffffffffffffffffffff1681526020019081526020016000206001018054610c309061219f565b80601f0160208091040260200160405190810160405280929190818152602001828054610c5c9061219f565b8015610ca95780601f10610c7e57610100808354040283529160200191610ca9565b820191906000526020600020905b815481529060010190602001808311610c8c57829003601f168201915b5050505050915050919050565b828073ffffffffffffffffffffffffffffffffffffffff163373ffffffffffffffffffffffffffffffffffffffff1614610d25576040517f08c379a0000000000000000000000000000000000000000000000000000000008152600401610d1c90611e5f565b60405180910390fd5b6000600160008673ffffffffffffffffffffffffffffffffffffffff1673ffffffffffffffffffffffffffffffffffffffff16815260200190815260200160002060020160019054906101000a90046fffffffffffffffffffffffffffffffff166fffffffffffffffffffffffffffffffff1614610dd8576040517f08c379a0000000000000000000000000000000000000000000000000000000008152600401610dcf9061221c565b60405180910390fd5b60011515600160008673ffffffffffffffffffffffffffffffffffffffff1673ffffffffffffffffffffffffffffffffffffffff16815260200190815260200160002060000160149054906101000a900460ff16151514610e6e576040517f08c379a0000000000000000000000000000000000000000000000000000000008152600401610e6590612288565b60405180910390fd5b60018060008673ffffffffffffffffffffffffffffffffffffffff1673ffffffffffffffffffffffffffffffffffffffff16815260200190815260200160002060000160156101000a81548160ff02191690831515021790555082600160008673ffffffffffffffffffffffffffffffffffffffff1673ffffffffffffffffffffffffffffffffffffffff1681526020019081526020016000206001019081610f179190612454565b5081600160008673ffffffffffffffffffffffffffffffffffffffff1673ffffffffffffffffffffffffffffffffffffffff16815260200190815260200160002060020160006101000a81548160ff021916908360ff16021790555042600160008673ffffffffffffffffffffffffffffffffffffffff1673ffffffffffffffffffffffffffffffffffffffff168152602001908152602001600020600301819055506000600160008673ffffffffffffffffffffffffffffffffffffffff1673ffffffffffffffffffffffffffffffffffffffff16815260200190815260200160002060000160146101000a81548160ff02191690831515021790555050505050565b6000818073ffffffffffffffffffffffffffffffffffffffff163373ffffffffffffffffffffffffffffffffffffffff161461108c576040517f08c379a000000000000000000000000000000000000000000000000000000000815260040161108390611e5f565b60405180910390fd5b6000600160008573ffffffffffffffffffffffffffffffffffffffff1673ffffffffffffffffffffffffffffffffffffffff1681526020019081526020016000206004015403611111576040517f08c379a000000000000000000000000000000000000000000000000000000000815260040161110890612598565b60405180910390fd5b600160008473ffffffffffffffffffffffffffffffffffffffff1673ffffffffffffffffffffffffffffffffffffffff16815260200190815260200160002060020160019054906101000a90046fffffffffffffffffffffffffffffffff166fffffffffffffffffffffffffffffffff16915050919050565b600080828073ffffffffffffffffffffffffffffffffffffffff163373ffffffffffffffffffffffffffffffffffffffff16146111fc576040517f08c379a00000000000000000000000000000000000000000000000000000000081526004016111f390611e5f565b60405180910390fd5b600160008573ffffffffffffffffffffffffffffffffffffffff1673ffffffffffffffffffffffffffffffffffffffff16815260200190815260200160002060000160149054906101000a900460ff169250600160008573ffffffffffffffffffffffffffffffffffffffff1673ffffffffffffffffffffffffffffffffffffffff16815260200190815260200160002060000160159054906101000a900460ff16915050915091565b818073ffffffffffffffffffffffffffffffffffffffff163373ffffffffffffffffffffffffffffffffffffffff1614611315576040517f08c379a000000000000000000000000000000000000000000000000000000000815260040161130c90611e5f565b60405180910390fd5b60011515600160008573ffffffffffffffffffffffffffffffffffffffff1673ffffffffffffffffffffffffffffffffffffffff16815260200190815260200160002060000160159054906101000a900460ff161515146113ab576040517f08c379a00000000000000000000000000000000000000000000000000000000081526004016113a290611fef565b60405180910390fd5b6000600160008573ffffffffffffffffffffffffffffffffffffffff1673ffffffffffffffffffffffffffffffffffffffff16815260200190815260200160002060000160156101000a81548160ff02191690831515021790555042600160008573ffffffffffffffffffffffffffffffffffffffff1673ffffffffffffffffffffffffffffffffffffffff1681526020019081526020016000206004018190555061145783836117ba565b505050565b6000151561146989611671565b1515146114ab576040517f08c379a00000000000000000000000000000000000000000000000000000000081526004016114a290612604565b60405180910390fd5b6040518061010001604052808973ffffffffffffffffffffffffffffffffffffffff168152602001881515815260200187151581526020018681526020018560ff168152602001846fffffffffffffffffffffffffffffffff16815260200183815260200182815250600160008a73ffffffffffffffffffffffffffffffffffffffff1673ffffffffffffffffffffffffffffffffffffffff16815260200190815260200160002060008201518160000160006101000a81548173ffffffffffffffffffffffffffffffffffffffff021916908373ffffffffffffffffffffffffffffffffffffffff16021790555060208201518160000160146101000a81548160ff02191690831515021790555060408201518160000160156101000a81548160ff02191690831515021790555060608201518160010190816115ef9190612454565b5060808201518160020160006101000a81548160ff021916908360ff16021790555060a08201518160020160016101000a8154816fffffffffffffffffffffffffffffffff02191690836fffffffffffffffffffffffffffffffff16021790555060c0820151816003015560e082015181600401559050505050505050505050565b6000818073ffffffffffffffffffffffffffffffffffffffff163373ffffffffffffffffffffffffffffffffffffffff16146116e2576040517f08c379a00000000000000000000000000000000000000000000000000000000081526004016116d990611e5f565b60405180910390fd5b600073ffffffffffffffffffffffffffffffffffffffff16600160008573ffffffffffffffffffffffffffffffffffffffff1673ffffffffffffffffffffffffffffffffffffffff16815260200190815260200160002060000160009054906101000a900473ffffffffffffffffffffffffffffffffffffffff1673ffffffffffffffffffffffffffffffffffffffff16146117815760019150611786565b600091505b50919050565b6000603c82106117b0576000603c836117a59190612653565b9050809150506117b5565b600190505b919050565b60006117c5836107f2565b905081816117d39190612684565b600160008573ffffffffffffffffffffffffffffffffffffffff1673ffffffffffffffffffffffffffffffffffffffff16815260200190815260200160002060020160016101000a8154816fffffffffffffffffffffffffffffffff02191690836fffffffffffffffffffffffffffffffff160217905550505050565b6000604051905090565b600080fd5b600080fd5b600073ffffffffffffffffffffffffffffffffffffffff82169050919050565b600061188f82611864565b9050919050565b61189f81611884565b81146118aa57600080fd5b50565b6000813590506118bc81611896565b92915050565b6000602082840312156118d8576118d761185a565b5b60006118e6848285016118ad565b91505092915050565b6000819050919050565b611902816118ef565b82525050565b600060208201905061191d60008301846118f9565b92915050565b600060ff82169050919050565b61193981611923565b82525050565b60006020820190506119546000830184611930565b92915050565b600081519050919050565b600082825260208201905092915050565b60005b83811015611994578082015181840152602081019050611979565b60008484015250505050565b6000601f19601f8301169050919050565b60006119bc8261195a565b6119c68185611965565b93506119d6818560208601611976565b6119df816119a0565b840191505092915050565b60006020820190508181036000830152611a0481846119b1565b905092915050565b600080fd5b600080fd5b7f4e487b7100000000000000000000000000000000000000000000000000000000600052604160045260246000fd5b611a4e826119a0565b810181811067ffffffffffffffff82111715611a6d57611a6c611a16565b5b80604052505050565b6000611a80611850565b9050611a8c8282611a45565b919050565b600067ffffffffffffffff821115611aac57611aab611a16565b5b611ab5826119a0565b9050602081019050919050565b82818337600083830152505050565b6000611ae4611adf84611a91565b611a76565b905082815260208101848484011115611b0057611aff611a11565b5b611b0b848285611ac2565b509392505050565b600082601f830112611b2857611b27611a0c565b5b8135611b38848260208601611ad1565b91505092915050565b611b4a81611923565b8114611b5557600080fd5b50565b600081359050611b6781611b41565b92915050565b600080600060608486031215611b8657611b8561185a565b5b6000611b94868287016118ad565b935050602084013567ffffffffffffffff811115611bb557611bb461185f565b5b611bc186828701611b13565b9250506040611bd286828701611b58565b9150509250925092565b60008115159050919050565b611bf181611bdc565b82525050565b6000604082019050611c0c6000830185611be8565b611c196020830184611be8565b9392505050565b60006fffffffffffffffffffffffffffffffff82169050919050565b611c4581611c20565b8114611c5057600080fd5b50565b600081359050611c6281611c3c565b92915050565b60008060408385031215611c7f57611c7e61185a565b5b6000611c8d858286016118ad565b9250506020611c9e85828601611c53565b9150509250929050565b611cb181611bdc565b8114611cbc57600080fd5b50565b600081359050611cce81611ca8565b92915050565b611cdd816118ef565b8114611ce857600080fd5b50565b600081359050611cfa81611cd4565b92915050565b600080600080600080600080610100898b031215611d2157611d2061185a565b5b6000611d2f8b828c016118ad565b9850506020611d408b828c01611cbf565b9750506040611d518b828c01611cbf565b965050606089013567ffffffffffffffff811115611d7257611d7161185f565b5b611d7e8b828c01611b13565b9550506080611d8f8b828c01611b58565b94505060a0611da08b828c01611c53565b93505060c0611db18b828c01611ceb565b92505060e0611dc28b828c01611ceb565b9150509295985092959890939650565b6000602082019050611de76000830184611be8565b92915050565b7f596f752063616e206f6e6c79206d616e61676520796f7572206163636f756e7460008201527f2e00000000000000000000000000000000000000000000000000000000000000602082015250565b6000611e49602183611965565b9150611e5482611ded565b604082019050919050565b60006020820190508181036000830152611e7881611e3c565b9050919050565b7f596f7520646f6e2774206861766520616e797468696e6720647565206174207460008201527f6869732074696d652e0000000000000000000000000000000000000000000000602082015250565b6000611edb602983611965565b9150611ee682611e7f565b604082019050919050565b60006020820190508181036000830152611f0a81611ece565b9050919050565b7f596f7520646f6e2774207365742074686520636f727265637420616d6f756e7460008201527f20286d75737420626520657175616c20746f20796f7572206475652900000000602082015250565b6000611f6d603c83611965565b9150611f7882611f11565b604082019050919050565b60006020820190508181036000830152611f9c81611f60565b9050919050565b7f596f7520646f6e27742068617665206120736e6f77626f6172642e0000000000600082015250565b6000611fd9601b83611965565b9150611fe482611fa3565b602082019050919050565b6000602082019050818103600083015261200881611fcc565b9050919050565b7f4e487b7100000000000000000000000000000000000000000000000000000000600052601160045260246000fd5b6000612049826118ef565b9150612054836118ef565b925082820390508181111561206c5761206b61200f565b5b92915050565b7f596f7520617265207374696c6c2072656e74696e67206120736e6f77626f617260008201527f6400000000000000000000000000000000000000000000000000000000000000602082015250565b60006120ce602183611965565b91506120d982612072565b604082019050919050565b600060208201905081810360008301526120fd816120c1565b9050919050565b7f596f7520617265206e6f742072656e74696e67206120736e6f77626f61726400600082015250565b600061213a601f83611965565b915061214582612104565b602082019050919050565b600060208201905081810360008301526121698161212d565b9050919050565b7f4e487b7100000000000000000000000000000000000000000000000000000000600052602260045260246000fd5b600060028204905060018216806121b757607f821691505b6020821081036121ca576121c9612170565b5b50919050565b7f596f75206861766520612070656e64696e67207061796d656e742e0000000000600082015250565b6000612206601b83611965565b9150612211826121d0565b602082019050919050565b60006020820190508181036000830152612235816121f9565b9050919050565b7f596f752063616e27742072656e7420617420746869732074696d652e00000000600082015250565b6000612272601c83611965565b915061227d8261223c565b602082019050919050565b600060208201905081810360008301526122a181612265565b9050919050565b60008190508160005260206000209050919050565b60006020601f8301049050919050565b600082821b905092915050565b60006008830261230a7fffffffffffffffffffffffffffffffffffffffffffffffffffffffffffffffff826122cd565b61231486836122cd565b95508019841693508086168417925050509392505050565b6000819050919050565b600061235161234c612347846118ef565b61232c565b6118ef565b9050919050565b6000819050919050565b61236b83612336565b61237f61237782612358565b8484546122da565b825550505050565b600090565b612394612387565b61239f818484612362565b505050565b5b818110156123c3576123b860008261238c565b6001810190506123a5565b5050565b601f821115612408576123d9816122a8565b6123e2846122bd565b810160208510156123f1578190505b6124056123fd856122bd565b8301826123a4565b50505b505050565b600082821c905092915050565b600061242b6000198460080261240d565b1980831691505092915050565b6000612444838361241a565b9150826002028217905092915050565b61245d8261195a565b67ffffffffffffffff81111561247657612475611a16565b5b612480825461219f565b61248b8282856123c7565b600060209050601f8311600181146124be57600084156124ac578287015190505b6124b68582612438565b86555061251e565b601f1984166124cc866122a8565b60005b828110156124f4578489015182556001820191506020850194506020810190506124cf565b86831015612511578489015161250d601f89168261241a565b8355505b6001600288020188555050505b505050505050565b7f596f7520646f6e2774206861766520612064756520617420746869732074696d60008201527f652e000000000000000000000000000000000000000000000000000000000000602082015250565b6000612582602283611965565b915061258d82612526565b604082019050919050565b600060208201905081810360008301526125b181612575565b9050919050565b7f596f7520616c7265616479206861766520616e206163636f756e742e00000000600082015250565b60006125ee601c83611965565b91506125f9826125b8565b602082019050919050565b6000602082019050818103600083015261261d816125e1565b9050919050565b7f4e487b7100000000000000000000000000000000000000000000000000000000600052601260045260246000fd5b600061265e826118ef565b9150612669836118ef565b92508261267957612678612624565b5b828204905092915050565b600061268f82611c20565b915061269a83611c20565b9250816fffffffffffffffffffffffffffffffff04831182151516156126c3576126c261200f565b5b82820290509291505056fea26469706673582212209a17c0e576eceb5d7473ef7d1eae07ca2823c371c8d283b0c1a214167cc2c24064736f6c63430008100033",
  "linkReferences": {},
  "deployedLinkReferences": {}
}