{
  "_format": "hh-sol-artifact-1",
  "contractName": "Chainboard",
  "sourceName": "contracts/Chainboard.sol",
  "abi": [
    {
      "inputs": [],
      "stateMutability": "nonpayable",
      "type": "constructor"
    },
    {
      "inputs": [
        {
          "internalType": "address",
          "name": "walletAddress",
          "type": "address"
        },
        {
          "internalType": "bool",
          "name": "canRent",
          "type": "bool"
        },
        {
          "internalType": "bool",
          "name": "isRenting",
          "type": "bool"
        },
        {
          "internalType": "uint256",
          "name": "due",
          "type": "uint256"
        },
        {
          "internalType": "uint256",
          "name": "start",
          "type": "uint256"
        },
        {
          "internalType": "uint256",
          "name": "end",
          "type": "uint256"
        }
      ],
      "name": "addRenter",
      "outputs": [],
      "stateMutability": "nonpayable",
      "type": "function"
    },
    {
      "inputs": [
        {
          "internalType": "address",
          "name": "walletAddress",
          "type": "address"
        },
        {
          "internalType": "uint256",
          "name": "snowboardPrice",
          "type": "uint256"
        }
      ],
      "name": "checkIn",
      "outputs": [],
      "stateMutability": "nonpayable",
      "type": "function"
    },
    {
      "inputs": [
        {
          "internalType": "address",
          "name": "walletAddress",
          "type": "address"
        }
      ],
      "name": "checkOut",
      "outputs": [],
      "stateMutability": "nonpayable",
      "type": "function"
    },
    {
      "inputs": [
        {
          "internalType": "address",
          "name": "walletAddress",
          "type": "address"
        }
      ],
      "name": "getActualDuration",
      "outputs": [
        {
          "internalType": "uint256",
          "name": "",
          "type": "uint256"
        }
      ],
      "stateMutability": "view",
      "type": "function"
    },
    {
      "inputs": [
        {
          "internalType": "address",
          "name": "walletAddress",
          "type": "address"
        }
      ],
      "name": "getDue",
      "outputs": [
        {
          "internalType": "uint256",
          "name": "",
          "type": "uint256"
        }
      ],
      "stateMutability": "view",
      "type": "function"
    },
    {
      "inputs": [
        {
          "internalType": "address",
          "name": "walletAddress",
          "type": "address"
        }
      ],
      "name": "getRenterStatus",
      "outputs": [
        {
          "internalType": "bool",
          "name": "canRent",
          "type": "bool"
        },
        {
          "internalType": "bool",
          "name": "isRenting",
          "type": "bool"
        }
      ],
      "stateMutability": "view",
      "type": "function"
    },
    {
      "inputs": [
        {
          "internalType": "address",
          "name": "walletAddress",
          "type": "address"
        }
      ],
      "name": "getTotalDuration",
      "outputs": [
        {
          "internalType": "uint256",
          "name": "",
          "type": "uint256"
        }
      ],
      "stateMutability": "view",
      "type": "function"
    },
    {
      "inputs": [],
      "name": "isOwner",
      "outputs": [
        {
          "internalType": "bool",
          "name": "",
          "type": "bool"
        }
      ],
      "stateMutability": "view",
      "type": "function"
    },
    {
      "inputs": [
        {
          "internalType": "address",
          "name": "walletAddress",
          "type": "address"
        }
      ],
      "name": "makePayment",
      "outputs": [],
      "stateMutability": "payable",
      "type": "function"
    },
    {
      "inputs": [
        {
          "internalType": "address",
          "name": "walletAddress",
          "type": "address"
        }
      ],
      "name": "renterExists",
      "outputs": [
        {
          "internalType": "bool",
          "name": "",
          "type": "bool"
        }
      ],
      "stateMutability": "view",
      "type": "function"
    },
    {
      "inputs": [
        {
          "internalType": "address",
          "name": "",
          "type": "address"
        }
      ],
      "name": "renters",
      "outputs": [
        {
          "internalType": "address",
          "name": "walletAddress",
          "type": "address"
        },
        {
          "internalType": "bool",
          "name": "canRent",
          "type": "bool"
        },
        {
          "internalType": "bool",
          "name": "isRenting",
          "type": "bool"
        },
        {
          "internalType": "uint256",
          "name": "due",
          "type": "uint256"
        },
        {
          "internalType": "uint256",
          "name": "start",
          "type": "uint256"
        },
        {
          "internalType": "uint256",
          "name": "end",
          "type": "uint256"
        }
      ],
      "stateMutability": "view",
      "type": "function"
    }
  ],
  "bytecode": "0x608060405234801561001057600080fd5b50336000806101000a81548173ffffffffffffffffffffffffffffffffffffffff021916908373ffffffffffffffffffffffffffffffffffffffff160217905550611cde806100606000396000f3fe60806040526004361061009c5760003560e01c80638d23caa0116100645780638d23caa0146101a25780638f32d59b146101cb578063b3f68845146101f6578063c6d2a8461461021f578063ce12482b1461025c578063f9d8241c1461029a5761009c565b80632e66c69a146100a1578063300be4fc146100ca57806337da3882146100e657806341ba6e8914610123578063644a137014610160575b600080fd5b3480156100ad57600080fd5b506100c860048036038101906100c391906114f7565b6102d7565b005b6100e460048036038101906100df9190611537565b61048d565b005b3480156100f257600080fd5b5061010d60048036038101906101089190611537565b6107a2565b60405161011a9190611573565b60405180910390f35b34801561012f57600080fd5b5061014a60048036038101906101459190611537565b61090b565b6040516101579190611573565b60405180910390f35b34801561016c57600080fd5b5061018760048036038101906101829190611537565b610bc0565b604051610199969594939291906115b8565b60405180910390f35b3480156101ae57600080fd5b506101c960048036038101906101c49190611537565b610c36565b005b3480156101d757600080fd5b506101e0610ec0565b6040516101ed9190611619565b60405180910390f35b34801561020257600080fd5b5061021d60048036038101906102189190611660565b610f16565b005b34801561022b57600080fd5b5061024660048036038101906102419190611537565b61109b565b6040516102539190611573565b60405180910390f35b34801561026857600080fd5b50610283600480360381019061027e9190611537565b611157565b6040516102919291906116ed565b60405180910390f35b3480156102a657600080fd5b506102c160048036038101906102bc9190611537565b611273565b6040516102ce9190611619565b60405180910390f35b818073ffffffffffffffffffffffffffffffffffffffff163373ffffffffffffffffffffffffffffffffffffffff1614610346576040517f08c379a000000000000000000000000000000000000000000000000000000000815260040161033d90611799565b60405180910390fd5b60011515600160008573ffffffffffffffffffffffffffffffffffffffff1673ffffffffffffffffffffffffffffffffffffffff16815260200190815260200160002060000160159054906101000a900460ff161515146103dc576040517f08c379a00000000000000000000000000000000000000000000000000000000081526004016103d390611805565b60405180910390fd5b6000600160008573ffffffffffffffffffffffffffffffffffffffff1673ffffffffffffffffffffffffffffffffffffffff16815260200190815260200160002060000160156101000a81548160ff02191690831515021790555042600160008573ffffffffffffffffffffffffffffffffffffffff1673ffffffffffffffffffffffffffffffffffffffff16815260200190815260200160002060030181905550610488838361138e565b505050565b808073ffffffffffffffffffffffffffffffffffffffff163373ffffffffffffffffffffffffffffffffffffffff16146104fc576040517f08c379a00000000000000000000000000000000000000000000000000000000081526004016104f390611799565b60405180910390fd5b6000600160008473ffffffffffffffffffffffffffffffffffffffff1673ffffffffffffffffffffffffffffffffffffffff1681526020019081526020016000206001015411610581576040517f08c379a000000000000000000000000000000000000000000000000000000000815260040161057890611897565b60405180910390fd5b34600160008473ffffffffffffffffffffffffffffffffffffffff1673ffffffffffffffffffffffffffffffffffffffff1681526020019081526020016000206001015414610605576040517f08c379a00000000000000000000000000000000000000000000000000000000081526004016105fc90611929565b60405180910390fd5b60008054906101000a900473ffffffffffffffffffffffffffffffffffffffff1673ffffffffffffffffffffffffffffffffffffffff166108fc349081150290604051600060405180830381858888f1935050505015801561066b573d6000803e3d6000fd5b5060018060008473ffffffffffffffffffffffffffffffffffffffff1673ffffffffffffffffffffffffffffffffffffffff16815260200190815260200160002060000160146101000a81548160ff0219169083151502179055506000600160008473ffffffffffffffffffffffffffffffffffffffff1673ffffffffffffffffffffffffffffffffffffffff168152602001908152602001600020600101819055506000600160008473ffffffffffffffffffffffffffffffffffffffff1673ffffffffffffffffffffffffffffffffffffffff168152602001908152602001600020600201819055506000600160008473ffffffffffffffffffffffffffffffffffffffff1673ffffffffffffffffffffffffffffffffffffffff168152602001908152602001600020600301819055505050565b6000818073ffffffffffffffffffffffffffffffffffffffff163373ffffffffffffffffffffffffffffffffffffffff1614610813576040517f08c379a000000000000000000000000000000000000000000000000000000000815260040161080a90611799565b60405180910390fd5b60011515600160008573ffffffffffffffffffffffffffffffffffffffff1673ffffffffffffffffffffffffffffffffffffffff16815260200190815260200160002060000160159054906101000a900460ff161515146108a9576040517f08c379a00000000000000000000000000000000000000000000000000000000081526004016108a090611805565b60405180910390fd5b60006108f742600160008773ffffffffffffffffffffffffffffffffffffffff1673ffffffffffffffffffffffffffffffffffffffff168152602001908152602001600020600201546113f0565b905061090281611406565b92505050919050565b6000818073ffffffffffffffffffffffffffffffffffffffff163373ffffffffffffffffffffffffffffffffffffffff161461097c576040517f08c379a000000000000000000000000000000000000000000000000000000000815260040161097390611799565b60405180910390fd5b60001515600160008573ffffffffffffffffffffffffffffffffffffffff1673ffffffffffffffffffffffffffffffffffffffff16815260200190815260200160002060000160159054906101000a900460ff16151514610a12576040517f08c379a0000000000000000000000000000000000000000000000000000000008152600401610a09906119bb565b60405180910390fd5b6000600160008573ffffffffffffffffffffffffffffffffffffffff1673ffffffffffffffffffffffffffffffffffffffff1681526020019081526020016000206002015411610a97576040517f08c379a0000000000000000000000000000000000000000000000000000000008152600401610a8e90611a27565b60405180910390fd5b6000600160008573ffffffffffffffffffffffffffffffffffffffff1673ffffffffffffffffffffffffffffffffffffffff1681526020019081526020016000206003015411610b1c576040517f08c379a0000000000000000000000000000000000000000000000000000000008152600401610b13906119bb565b60405180910390fd5b6000610bac600160008673ffffffffffffffffffffffffffffffffffffffff1673ffffffffffffffffffffffffffffffffffffffff16815260200190815260200160002060030154600160008773ffffffffffffffffffffffffffffffffffffffff1673ffffffffffffffffffffffffffffffffffffffff168152602001908152602001600020600201546113f0565b9050610bb781611406565b92505050919050565b60016020528060005260406000206000915090508060000160009054906101000a900473ffffffffffffffffffffffffffffffffffffffff16908060000160149054906101000a900460ff16908060000160159054906101000a900460ff16908060010154908060020154908060030154905086565b808073ffffffffffffffffffffffffffffffffffffffff163373ffffffffffffffffffffffffffffffffffffffff1614610ca5576040517f08c379a0000000000000000000000000000000000000000000000000000000008152600401610c9c90611799565b60405180910390fd5b6000600160008473ffffffffffffffffffffffffffffffffffffffff1673ffffffffffffffffffffffffffffffffffffffff1681526020019081526020016000206001015414610d2a576040517f08c379a0000000000000000000000000000000000000000000000000000000008152600401610d2190611a93565b60405180910390fd5b60011515600160008473ffffffffffffffffffffffffffffffffffffffff1673ffffffffffffffffffffffffffffffffffffffff16815260200190815260200160002060000160149054906101000a900460ff16151514610dc0576040517f08c379a0000000000000000000000000000000000000000000000000000000008152600401610db790611aff565b60405180910390fd5b60018060008473ffffffffffffffffffffffffffffffffffffffff1673ffffffffffffffffffffffffffffffffffffffff16815260200190815260200160002060000160156101000a81548160ff02191690831515021790555042600160008473ffffffffffffffffffffffffffffffffffffffff1673ffffffffffffffffffffffffffffffffffffffff168152602001908152602001600020600201819055506000600160008473ffffffffffffffffffffffffffffffffffffffff1673ffffffffffffffffffffffffffffffffffffffff16815260200190815260200160002060000160146101000a81548160ff0219169083151502179055505050565b60003373ffffffffffffffffffffffffffffffffffffffff1660008054906101000a900473ffffffffffffffffffffffffffffffffffffffff1673ffffffffffffffffffffffffffffffffffffffff1614905090565b60001515610f2387611273565b151514610f65576040517f08c379a0000000000000000000000000000000000000000000000000000000008152600401610f5c90611b6b565b60405180910390fd5b6040518060c001604052808773ffffffffffffffffffffffffffffffffffffffff1681526020018615158152602001851515815260200184815260200183815260200182815250600160008873ffffffffffffffffffffffffffffffffffffffff1673ffffffffffffffffffffffffffffffffffffffff16815260200190815260200160002060008201518160000160006101000a81548173ffffffffffffffffffffffffffffffffffffffff021916908373ffffffffffffffffffffffffffffffffffffffff16021790555060208201518160000160146101000a81548160ff02191690831515021790555060408201518160000160156101000a81548160ff021916908315150217905550606082015181600101556080820151816002015560a08201518160030155905050505050505050565b6000818073ffffffffffffffffffffffffffffffffffffffff163373ffffffffffffffffffffffffffffffffffffffff161461110c576040517f08c379a000000000000000000000000000000000000000000000000000000000815260040161110390611799565b60405180910390fd5b600160008473ffffffffffffffffffffffffffffffffffffffff1673ffffffffffffffffffffffffffffffffffffffff16815260200190815260200160002060010154915050919050565b600080828073ffffffffffffffffffffffffffffffffffffffff163373ffffffffffffffffffffffffffffffffffffffff16146111c9576040517f08c379a00000000000000000000000000000000000000000000000000000000081526004016111c090611799565b60405180910390fd5b600160008573ffffffffffffffffffffffffffffffffffffffff1673ffffffffffffffffffffffffffffffffffffffff16815260200190815260200160002060000160149054906101000a900460ff169250600160008573ffffffffffffffffffffffffffffffffffffffff1673ffffffffffffffffffffffffffffffffffffffff16815260200190815260200160002060000160159054906101000a900460ff16915050915091565b6000818073ffffffffffffffffffffffffffffffffffffffff163373ffffffffffffffffffffffffffffffffffffffff16146112e4576040517f08c379a00000000000000000000000000000000000000000000000000000000081526004016112db90611799565b60405180910390fd5b600073ffffffffffffffffffffffffffffffffffffffff16600160008573ffffffffffffffffffffffffffffffffffffffff1673ffffffffffffffffffffffffffffffffffffffff16815260200190815260200160002060000160009054906101000a900473ffffffffffffffffffffffffffffffffffffffff1673ffffffffffffffffffffffffffffffffffffffff16146113835760019150611388565b600091505b50919050565b60006113998361090b565b90506113a58183611432565b600160008573ffffffffffffffffffffffffffffffffffffffff1673ffffffffffffffffffffffffffffffffffffffff16815260200190815260200160002060010181905550505050565b600081836113fe9190611bba565b905092915050565b6000603c821061142857600061141d83603c611448565b90508091505061142d565b600190505b919050565b600081836114409190611bee565b905092915050565b600081836114569190611c77565b905092915050565b600080fd5b600073ffffffffffffffffffffffffffffffffffffffff82169050919050565b600061148e82611463565b9050919050565b61149e81611483565b81146114a957600080fd5b50565b6000813590506114bb81611495565b92915050565b6000819050919050565b6114d4816114c1565b81146114df57600080fd5b50565b6000813590506114f1816114cb565b92915050565b6000806040838503121561150e5761150d61145e565b5b600061151c858286016114ac565b925050602061152d858286016114e2565b9150509250929050565b60006020828403121561154d5761154c61145e565b5b600061155b848285016114ac565b91505092915050565b61156d816114c1565b82525050565b60006020820190506115886000830184611564565b92915050565b61159781611483565b82525050565b60008115159050919050565b6115b28161159d565b82525050565b600060c0820190506115cd600083018961158e565b6115da60208301886115a9565b6115e760408301876115a9565b6115f46060830186611564565b6116016080830185611564565b61160e60a0830184611564565b979650505050505050565b600060208201905061162e60008301846115a9565b92915050565b61163d8161159d565b811461164857600080fd5b50565b60008135905061165a81611634565b92915050565b60008060008060008060c0878903121561167d5761167c61145e565b5b600061168b89828a016114ac565b965050602061169c89828a0161164b565b95505060406116ad89828a0161164b565b94505060606116be89828a016114e2565b93505060806116cf89828a016114e2565b92505060a06116e089828a016114e2565b9150509295509295509295565b600060408201905061170260008301856115a9565b61170f60208301846115a9565b9392505050565b600082825260208201905092915050565b7f596f752063616e206f6e6c79206d616e61676520796f7572206163636f756e7460008201527f2e00000000000000000000000000000000000000000000000000000000000000602082015250565b6000611783602183611716565b915061178e82611727565b604082019050919050565b600060208201905081810360008301526117b281611776565b9050919050565b7f596f7520646f6e27742068617665206120736e6f77626f6172642e0000000000600082015250565b60006117ef601b83611716565b91506117fa826117b9565b602082019050919050565b6000602082019050818103600083015261181e816117e2565b9050919050565b7f596f7520646f6e2774206861766520616e797468696e6720647565206174207460008201527f6869732074696d652e0000000000000000000000000000000000000000000000602082015250565b6000611881602983611716565b915061188c82611825565b604082019050919050565b600060208201905081810360008301526118b081611874565b9050919050565b7f596f7520646f6e2774207365742074686520636f727265637420616d6f756e7460008201527f20286d75737420626520657175616c20746f20796f7572206475652900000000602082015250565b6000611913603c83611716565b915061191e826118b7565b604082019050919050565b6000602082019050818103600083015261194281611906565b9050919050565b7f596f7520617265207374696c6c2072656e74696e67206120736e6f77626f617260008201527f6400000000000000000000000000000000000000000000000000000000000000602082015250565b60006119a5602183611716565b91506119b082611949565b604082019050919050565b600060208201905081810360008301526119d481611998565b9050919050565b7f596f7520617265206e6f742072656e74696e67206120736e6f77626f61726400600082015250565b6000611a11601f83611716565b9150611a1c826119db565b602082019050919050565b60006020820190508181036000830152611a4081611a04565b9050919050565b7f596f75206861766520612070656e64696e67207061796d656e742e0000000000600082015250565b6000611a7d601b83611716565b9150611a8882611a47565b602082019050919050565b60006020820190508181036000830152611aac81611a70565b9050919050565b7f596f752063616e27742072656e7420617420746869732074696d652e00000000600082015250565b6000611ae9601c83611716565b9150611af482611ab3565b602082019050919050565b60006020820190508181036000830152611b1881611adc565b9050919050565b7f596f7520616c7265616479206861766520616e206163636f756e742e00000000600082015250565b6000611b55601c83611716565b9150611b6082611b1f565b602082019050919050565b60006020820190508181036000830152611b8481611b48565b9050919050565b7f4e487b7100000000000000000000000000000000000000000000000000000000600052601160045260246000fd5b6000611bc5826114c1565b9150611bd0836114c1565b9250828203905081811115611be857611be7611b8b565b5b92915050565b6000611bf9826114c1565b9150611c04836114c1565b9250817fffffffffffffffffffffffffffffffffffffffffffffffffffffffffffffffff0483118215151615611c3d57611c3c611b8b565b5b828202905092915050565b7f4e487b7100000000000000000000000000000000000000000000000000000000600052601260045260246000fd5b6000611c82826114c1565b9150611c8d836114c1565b925082611c9d57611c9c611c48565b5b82820490509291505056fea26469706673582212203f8506bc052f1098c9522ac35d0a750aab9841d2d51194600913d6597059a5fa64736f6c63430008100033",
  "linkReferences": {},
  "deployedLinkReferences": {}
}