{
  "_format": "hh-sol-artifact-1",
  "contractName": "Chainboard",
  "sourceName": "contracts/Chainboard.sol",
  "abi": [
    {
      "inputs": [],
      "stateMutability": "nonpayable",
      "type": "constructor"
    },
    {
      "inputs": [
        {
          "internalType": "address",
          "name": "walletAddress",
          "type": "address"
        },
        {
          "internalType": "bool",
          "name": "canRent",
          "type": "bool"
        },
        {
          "internalType": "bool",
          "name": "isRenting",
          "type": "bool"
        },
        {
          "internalType": "string",
          "name": "level",
          "type": "string"
        },
        {
          "internalType": "uint8",
          "name": "size",
          "type": "uint8"
        },
        {
          "internalType": "uint128",
          "name": "due",
          "type": "uint128"
        },
        {
          "internalType": "uint256",
          "name": "start",
          "type": "uint256"
        },
        {
          "internalType": "uint256",
          "name": "end",
          "type": "uint256"
        }
      ],
      "name": "addRenter",
      "outputs": [],
      "stateMutability": "nonpayable",
      "type": "function"
    },
    {
      "inputs": [
        {
          "internalType": "address",
          "name": "walletAddress",
          "type": "address"
        },
        {
          "internalType": "uint128",
          "name": "snowboardPrice",
          "type": "uint128"
        }
      ],
      "name": "checkIn",
      "outputs": [],
      "stateMutability": "nonpayable",
      "type": "function"
    },
    {
      "inputs": [
        {
          "internalType": "address",
          "name": "walletAddress",
          "type": "address"
        },
        {
          "internalType": "string",
          "name": "level",
          "type": "string"
        },
        {
          "internalType": "uint8",
          "name": "size",
          "type": "uint8"
        }
      ],
      "name": "checkOut",
      "outputs": [],
      "stateMutability": "nonpayable",
      "type": "function"
    },
    {
      "inputs": [
        {
          "internalType": "address",
          "name": "walletAddress",
          "type": "address"
        }
      ],
      "name": "getActualDuration",
      "outputs": [
        {
          "internalType": "uint256",
          "name": "",
          "type": "uint256"
        }
      ],
      "stateMutability": "view",
      "type": "function"
    },
    {
      "inputs": [
        {
          "internalType": "address",
          "name": "walletAddress",
          "type": "address"
        }
      ],
      "name": "getDue",
      "outputs": [
        {
          "internalType": "uint256",
          "name": "",
          "type": "uint256"
        }
      ],
      "stateMutability": "view",
      "type": "function"
    },
    {
      "inputs": [
        {
          "internalType": "address",
          "name": "walletAddress",
          "type": "address"
        }
      ],
      "name": "getEnd",
      "outputs": [
        {
          "internalType": "uint256",
          "name": "end",
          "type": "uint256"
        }
      ],
      "stateMutability": "view",
      "type": "function"
    },
    {
      "inputs": [
        {
          "internalType": "address",
          "name": "walletAddress",
          "type": "address"
        }
      ],
      "name": "getLevel",
      "outputs": [
        {
          "internalType": "string",
          "name": "level",
          "type": "string"
        }
      ],
      "stateMutability": "view",
      "type": "function"
    },
    {
      "inputs": [
        {
          "internalType": "address",
          "name": "walletAddress",
          "type": "address"
        }
      ],
      "name": "getRenterStatus",
      "outputs": [
        {
          "internalType": "bool",
          "name": "canRent",
          "type": "bool"
        },
        {
          "internalType": "bool",
          "name": "isRenting",
          "type": "bool"
        }
      ],
      "stateMutability": "view",
      "type": "function"
    },
    {
      "inputs": [
        {
          "internalType": "address",
          "name": "walletAddress",
          "type": "address"
        }
      ],
      "name": "getSize",
      "outputs": [
        {
          "internalType": "uint8",
          "name": "size",
          "type": "uint8"
        }
      ],
      "stateMutability": "view",
      "type": "function"
    },
    {
      "inputs": [
        {
          "internalType": "address",
          "name": "walletAddress",
          "type": "address"
        }
      ],
      "name": "getStart",
      "outputs": [
        {
          "internalType": "uint256",
          "name": "start",
          "type": "uint256"
        }
      ],
      "stateMutability": "view",
      "type": "function"
    },
    {
      "inputs": [
        {
          "internalType": "address",
          "name": "walletAddress",
          "type": "address"
        }
      ],
      "name": "getTotalDuration",
      "outputs": [
        {
          "internalType": "uint256",
          "name": "",
          "type": "uint256"
        }
      ],
      "stateMutability": "view",
      "type": "function"
    },
    {
      "inputs": [
        {
          "internalType": "address",
          "name": "walletAddress",
          "type": "address"
        }
      ],
      "name": "makePayment",
      "outputs": [],
      "stateMutability": "payable",
      "type": "function"
    },
    {
      "inputs": [
        {
          "internalType": "address",
          "name": "walletAddress",
          "type": "address"
        }
      ],
      "name": "renterExists",
      "outputs": [
        {
          "internalType": "bool",
          "name": "",
          "type": "bool"
        }
      ],
      "stateMutability": "view",
      "type": "function"
    }
  ],
  "bytecode": "0x608060405234801561001057600080fd5b50336000806101000a81548173ffffffffffffffffffffffffffffffffffffffff021916908373ffffffffffffffffffffffffffffffffffffffff160217905550612805806100606000396000f3fe6080604052600436106100c25760003560e01c8063817c89661161007f578063ce12482b11610059578063ce12482b146102b7578063d1062f63146102f5578063daee42531461031e578063f9d8241c14610347576100c2565b8063817c8966146102145780638c2e001114610251578063c6d2a8461461027a576100c2565b8063173087ba146100c7578063300be4fc1461010457806337da38821461012057806341ba6e891461015d578063504f16711461019a578063606b1623146101d7575b600080fd5b3480156100d357600080fd5b506100ee60048036038101906100e99190611a55565b610384565b6040516100fb9190611a9b565b60405180910390f35b61011e60048036038101906101199190611a55565b610440565b005b34801561012c57600080fd5b5061014760048036038101906101429190611a55565b6107e3565b6040516101549190611a9b565b60405180910390f35b34801561016957600080fd5b50610184600480360381019061017f9190611a55565b61094e565b6040516101919190611a9b565b60405180910390f35b3480156101a657600080fd5b506101c160048036038101906101bc9190611a55565b610c05565b6040516101ce9190611ad2565b60405180910390f35b3480156101e357600080fd5b506101fe60048036038101906101f99190611a55565b610cce565b60405161020b9190611a9b565b60405180910390f35b34801561022057600080fd5b5061023b60048036038101906102369190611a55565b610d8a565b6040516102489190611b7d565b60405180910390f35b34801561025d57600080fd5b5061027860048036038101906102739190611d00565b610ece565b005b34801561028657600080fd5b506102a1600480360381019061029c9190611a55565b611233565b6040516102ae9190611a9b565b60405180910390f35b3480156102c357600080fd5b506102de60048036038101906102d99190611a55565b61131d565b6040516102ec929190611d8a565b60405180910390f35b34801561030157600080fd5b5061031c60048036038101906103179190611dfb565b611439565b005b34801561032a57600080fd5b5061034560048036038101906103409190611e93565b6115ef565b005b34801561035357600080fd5b5061036e60048036038101906103699190611a55565b611804565b60405161037b9190611f65565b60405180910390f35b6000818073ffffffffffffffffffffffffffffffffffffffff163373ffffffffffffffffffffffffffffffffffffffff16146103f5576040517f08c379a00000000000000000000000000000000000000000000000000000000081526004016103ec90611ff2565b60405180910390fd5b600160008473ffffffffffffffffffffffffffffffffffffffff1673ffffffffffffffffffffffffffffffffffffffff16815260200190815260200160002060040154915050919050565b808073ffffffffffffffffffffffffffffffffffffffff163373ffffffffffffffffffffffffffffffffffffffff16146104af576040517f08c379a00000000000000000000000000000000000000000000000000000000081526004016104a690611ff2565b60405180910390fd5b6000600160008473ffffffffffffffffffffffffffffffffffffffff1673ffffffffffffffffffffffffffffffffffffffff16815260200190815260200160002060020160019054906101000a90046fffffffffffffffffffffffffffffffff166fffffffffffffffffffffffffffffffff1611610562576040517f08c379a000000000000000000000000000000000000000000000000000000000815260040161055990612084565b60405180910390fd5b34600160008473ffffffffffffffffffffffffffffffffffffffff1673ffffffffffffffffffffffffffffffffffffffff16815260200190815260200160002060020160019054906101000a90046fffffffffffffffffffffffffffffffff166fffffffffffffffffffffffffffffffff1614610614576040517f08c379a000000000000000000000000000000000000000000000000000000000815260040161060b90612116565b60405180910390fd5b60008054906101000a900473ffffffffffffffffffffffffffffffffffffffff1673ffffffffffffffffffffffffffffffffffffffff166108fc349081150290604051600060405180830381858888f1935050505015801561067a573d6000803e3d6000fd5b5060018060008473ffffffffffffffffffffffffffffffffffffffff1673ffffffffffffffffffffffffffffffffffffffff16815260200190815260200160002060000160146101000a81548160ff0219169083151502179055506000600160008473ffffffffffffffffffffffffffffffffffffffff1673ffffffffffffffffffffffffffffffffffffffff16815260200190815260200160002060020160016101000a8154816fffffffffffffffffffffffffffffffff02191690836fffffffffffffffffffffffffffffffff1602179055506000600160008473ffffffffffffffffffffffffffffffffffffffff1673ffffffffffffffffffffffffffffffffffffffff168152602001908152602001600020600301819055506000600160008473ffffffffffffffffffffffffffffffffffffffff1673ffffffffffffffffffffffffffffffffffffffff168152602001908152602001600020600401819055505050565b6000818073ffffffffffffffffffffffffffffffffffffffff163373ffffffffffffffffffffffffffffffffffffffff1614610854576040517f08c379a000000000000000000000000000000000000000000000000000000000815260040161084b90611ff2565b60405180910390fd5b60011515600160008573ffffffffffffffffffffffffffffffffffffffff1673ffffffffffffffffffffffffffffffffffffffff16815260200190815260200160002060000160159054906101000a900460ff161515146108ea576040517f08c379a00000000000000000000000000000000000000000000000000000000081526004016108e190612182565b60405180910390fd5b6000600160008573ffffffffffffffffffffffffffffffffffffffff1673ffffffffffffffffffffffffffffffffffffffff168152602001908152602001600020600301544261093a91906121d1565b90506109458161191f565b92505050919050565b6000818073ffffffffffffffffffffffffffffffffffffffff163373ffffffffffffffffffffffffffffffffffffffff16146109bf576040517f08c379a00000000000000000000000000000000000000000000000000000000081526004016109b690611ff2565b60405180910390fd5b60001515600160008573ffffffffffffffffffffffffffffffffffffffff1673ffffffffffffffffffffffffffffffffffffffff16815260200190815260200160002060000160159054906101000a900460ff16151514610a55576040517f08c379a0000000000000000000000000000000000000000000000000000000008152600401610a4c90612277565b60405180910390fd5b6000600160008573ffffffffffffffffffffffffffffffffffffffff1673ffffffffffffffffffffffffffffffffffffffff1681526020019081526020016000206003015411610ada576040517f08c379a0000000000000000000000000000000000000000000000000000000008152600401610ad1906122e3565b60405180910390fd5b6000600160008573ffffffffffffffffffffffffffffffffffffffff1673ffffffffffffffffffffffffffffffffffffffff1681526020019081526020016000206004015411610b5f576040517f08c379a0000000000000000000000000000000000000000000000000000000008152600401610b5690612277565b60405180910390fd5b6000600160008573ffffffffffffffffffffffffffffffffffffffff1673ffffffffffffffffffffffffffffffffffffffff16815260200190815260200160002060030154600160008673ffffffffffffffffffffffffffffffffffffffff1673ffffffffffffffffffffffffffffffffffffffff16815260200190815260200160002060040154610bf191906121d1565b9050610bfc8161191f565b92505050919050565b6000818073ffffffffffffffffffffffffffffffffffffffff163373ffffffffffffffffffffffffffffffffffffffff1614610c76576040517f08c379a0000000000000000000000000000000000000000000000000000000008152600401610c6d90611ff2565b60405180910390fd5b600160008473ffffffffffffffffffffffffffffffffffffffff1673ffffffffffffffffffffffffffffffffffffffff16815260200190815260200160002060020160009054906101000a900460ff16915050919050565b6000818073ffffffffffffffffffffffffffffffffffffffff163373ffffffffffffffffffffffffffffffffffffffff1614610d3f576040517f08c379a0000000000000000000000000000000000000000000000000000000008152600401610d3690611ff2565b60405180910390fd5b600160008473ffffffffffffffffffffffffffffffffffffffff1673ffffffffffffffffffffffffffffffffffffffff16815260200190815260200160002060030154915050919050565b6060818073ffffffffffffffffffffffffffffffffffffffff163373ffffffffffffffffffffffffffffffffffffffff1614610dfb576040517f08c379a0000000000000000000000000000000000000000000000000000000008152600401610df290611ff2565b60405180910390fd5b600160008473ffffffffffffffffffffffffffffffffffffffff1673ffffffffffffffffffffffffffffffffffffffff1681526020019081526020016000206001018054610e4890612332565b80601f0160208091040260200160405190810160405280929190818152602001828054610e7490612332565b8015610ec15780601f10610e9657610100808354040283529160200191610ec1565b820191906000526020600020905b815481529060010190602001808311610ea457829003601f168201915b5050505050915050919050565b828073ffffffffffffffffffffffffffffffffffffffff163373ffffffffffffffffffffffffffffffffffffffff1614610f3d576040517f08c379a0000000000000000000000000000000000000000000000000000000008152600401610f3490611ff2565b60405180910390fd5b6000600160008673ffffffffffffffffffffffffffffffffffffffff1673ffffffffffffffffffffffffffffffffffffffff16815260200190815260200160002060020160019054906101000a90046fffffffffffffffffffffffffffffffff166fffffffffffffffffffffffffffffffff1614610ff0576040517f08c379a0000000000000000000000000000000000000000000000000000000008152600401610fe7906123af565b60405180910390fd5b60011515600160008673ffffffffffffffffffffffffffffffffffffffff1673ffffffffffffffffffffffffffffffffffffffff16815260200190815260200160002060000160149054906101000a900460ff16151514611086576040517f08c379a000000000000000000000000000000000000000000000000000000000815260040161107d9061241b565b60405180910390fd5b60018060008673ffffffffffffffffffffffffffffffffffffffff1673ffffffffffffffffffffffffffffffffffffffff16815260200190815260200160002060000160156101000a81548160ff02191690831515021790555082600160008673ffffffffffffffffffffffffffffffffffffffff1673ffffffffffffffffffffffffffffffffffffffff168152602001908152602001600020600101908161112f91906125e7565b5081600160008673ffffffffffffffffffffffffffffffffffffffff1673ffffffffffffffffffffffffffffffffffffffff16815260200190815260200160002060020160006101000a81548160ff021916908360ff16021790555042600160008673ffffffffffffffffffffffffffffffffffffffff1673ffffffffffffffffffffffffffffffffffffffff168152602001908152602001600020600301819055506000600160008673ffffffffffffffffffffffffffffffffffffffff1673ffffffffffffffffffffffffffffffffffffffff16815260200190815260200160002060000160146101000a81548160ff02191690831515021790555050505050565b6000818073ffffffffffffffffffffffffffffffffffffffff163373ffffffffffffffffffffffffffffffffffffffff16146112a4576040517f08c379a000000000000000000000000000000000000000000000000000000000815260040161129b90611ff2565b60405180910390fd5b600160008473ffffffffffffffffffffffffffffffffffffffff1673ffffffffffffffffffffffffffffffffffffffff16815260200190815260200160002060020160019054906101000a90046fffffffffffffffffffffffffffffffff166fffffffffffffffffffffffffffffffff16915050919050565b600080828073ffffffffffffffffffffffffffffffffffffffff163373ffffffffffffffffffffffffffffffffffffffff161461138f576040517f08c379a000000000000000000000000000000000000000000000000000000000815260040161138690611ff2565b60405180910390fd5b600160008573ffffffffffffffffffffffffffffffffffffffff1673ffffffffffffffffffffffffffffffffffffffff16815260200190815260200160002060000160149054906101000a900460ff169250600160008573ffffffffffffffffffffffffffffffffffffffff1673ffffffffffffffffffffffffffffffffffffffff16815260200190815260200160002060000160159054906101000a900460ff16915050915091565b818073ffffffffffffffffffffffffffffffffffffffff163373ffffffffffffffffffffffffffffffffffffffff16146114a8576040517f08c379a000000000000000000000000000000000000000000000000000000000815260040161149f90611ff2565b60405180910390fd5b60011515600160008573ffffffffffffffffffffffffffffffffffffffff1673ffffffffffffffffffffffffffffffffffffffff16815260200190815260200160002060000160159054906101000a900460ff1615151461153e576040517f08c379a000000000000000000000000000000000000000000000000000000000815260040161153590612182565b60405180910390fd5b6000600160008573ffffffffffffffffffffffffffffffffffffffff1673ffffffffffffffffffffffffffffffffffffffff16815260200190815260200160002060000160156101000a81548160ff02191690831515021790555042600160008573ffffffffffffffffffffffffffffffffffffffff1673ffffffffffffffffffffffffffffffffffffffff168152602001908152602001600020600401819055506115ea838361194d565b505050565b600015156115fc89611804565b15151461163e576040517f08c379a000000000000000000000000000000000000000000000000000000000815260040161163590612705565b60405180910390fd5b6040518061010001604052808973ffffffffffffffffffffffffffffffffffffffff168152602001881515815260200187151581526020018681526020018560ff168152602001846fffffffffffffffffffffffffffffffff16815260200183815260200182815250600160008a73ffffffffffffffffffffffffffffffffffffffff1673ffffffffffffffffffffffffffffffffffffffff16815260200190815260200160002060008201518160000160006101000a81548173ffffffffffffffffffffffffffffffffffffffff021916908373ffffffffffffffffffffffffffffffffffffffff16021790555060208201518160000160146101000a81548160ff02191690831515021790555060408201518160000160156101000a81548160ff021916908315150217905550606082015181600101908161178291906125e7565b5060808201518160020160006101000a81548160ff021916908360ff16021790555060a08201518160020160016101000a8154816fffffffffffffffffffffffffffffffff02191690836fffffffffffffffffffffffffffffffff16021790555060c0820151816003015560e082015181600401559050505050505050505050565b6000818073ffffffffffffffffffffffffffffffffffffffff163373ffffffffffffffffffffffffffffffffffffffff1614611875576040517f08c379a000000000000000000000000000000000000000000000000000000000815260040161186c90611ff2565b60405180910390fd5b600073ffffffffffffffffffffffffffffffffffffffff16600160008573ffffffffffffffffffffffffffffffffffffffff1673ffffffffffffffffffffffffffffffffffffffff16815260200190815260200160002060000160009054906101000a900473ffffffffffffffffffffffffffffffffffffffff1673ffffffffffffffffffffffffffffffffffffffff16146119145760019150611919565b600091505b50919050565b6000603c8210611943576000603c836119389190612754565b905080915050611948565b600190505b919050565b60006119588361094e565b905081816119669190612785565b600160008573ffffffffffffffffffffffffffffffffffffffff1673ffffffffffffffffffffffffffffffffffffffff16815260200190815260200160002060020160016101000a8154816fffffffffffffffffffffffffffffffff02191690836fffffffffffffffffffffffffffffffff160217905550505050565b6000604051905090565b600080fd5b600080fd5b600073ffffffffffffffffffffffffffffffffffffffff82169050919050565b6000611a22826119f7565b9050919050565b611a3281611a17565b8114611a3d57600080fd5b50565b600081359050611a4f81611a29565b92915050565b600060208284031215611a6b57611a6a6119ed565b5b6000611a7984828501611a40565b91505092915050565b6000819050919050565b611a9581611a82565b82525050565b6000602082019050611ab06000830184611a8c565b92915050565b600060ff82169050919050565b611acc81611ab6565b82525050565b6000602082019050611ae76000830184611ac3565b92915050565b600081519050919050565b600082825260208201905092915050565b60005b83811015611b27578082015181840152602081019050611b0c565b60008484015250505050565b6000601f19601f8301169050919050565b6000611b4f82611aed565b611b598185611af8565b9350611b69818560208601611b09565b611b7281611b33565b840191505092915050565b60006020820190508181036000830152611b978184611b44565b905092915050565b600080fd5b600080fd5b7f4e487b7100000000000000000000000000000000000000000000000000000000600052604160045260246000fd5b611be182611b33565b810181811067ffffffffffffffff82111715611c0057611bff611ba9565b5b80604052505050565b6000611c136119e3565b9050611c1f8282611bd8565b919050565b600067ffffffffffffffff821115611c3f57611c3e611ba9565b5b611c4882611b33565b9050602081019050919050565b82818337600083830152505050565b6000611c77611c7284611c24565b611c09565b905082815260208101848484011115611c9357611c92611ba4565b5b611c9e848285611c55565b509392505050565b600082601f830112611cbb57611cba611b9f565b5b8135611ccb848260208601611c64565b91505092915050565b611cdd81611ab6565b8114611ce857600080fd5b50565b600081359050611cfa81611cd4565b92915050565b600080600060608486031215611d1957611d186119ed565b5b6000611d2786828701611a40565b935050602084013567ffffffffffffffff811115611d4857611d476119f2565b5b611d5486828701611ca6565b9250506040611d6586828701611ceb565b9150509250925092565b60008115159050919050565b611d8481611d6f565b82525050565b6000604082019050611d9f6000830185611d7b565b611dac6020830184611d7b565b9392505050565b60006fffffffffffffffffffffffffffffffff82169050919050565b611dd881611db3565b8114611de357600080fd5b50565b600081359050611df581611dcf565b92915050565b60008060408385031215611e1257611e116119ed565b5b6000611e2085828601611a40565b9250506020611e3185828601611de6565b9150509250929050565b611e4481611d6f565b8114611e4f57600080fd5b50565b600081359050611e6181611e3b565b92915050565b611e7081611a82565b8114611e7b57600080fd5b50565b600081359050611e8d81611e67565b92915050565b600080600080600080600080610100898b031215611eb457611eb36119ed565b5b6000611ec28b828c01611a40565b9850506020611ed38b828c01611e52565b9750506040611ee48b828c01611e52565b965050606089013567ffffffffffffffff811115611f0557611f046119f2565b5b611f118b828c01611ca6565b9550506080611f228b828c01611ceb565b94505060a0611f338b828c01611de6565b93505060c0611f448b828c01611e7e565b92505060e0611f558b828c01611e7e565b9150509295985092959890939650565b6000602082019050611f7a6000830184611d7b565b92915050565b7f596f752063616e206f6e6c79206d616e61676520796f7572206163636f756e7460008201527f2e00000000000000000000000000000000000000000000000000000000000000602082015250565b6000611fdc602183611af8565b9150611fe782611f80565b604082019050919050565b6000602082019050818103600083015261200b81611fcf565b9050919050565b7f596f7520646f6e2774206861766520616e797468696e6720647565206174207460008201527f6869732074696d652e0000000000000000000000000000000000000000000000602082015250565b600061206e602983611af8565b915061207982612012565b604082019050919050565b6000602082019050818103600083015261209d81612061565b9050919050565b7f596f7520646f6e2774207365742074686520636f727265637420616d6f756e7460008201527f20286d75737420626520657175616c20746f20796f7572206475652900000000602082015250565b6000612100603c83611af8565b915061210b826120a4565b604082019050919050565b6000602082019050818103600083015261212f816120f3565b9050919050565b7f596f7520646f6e27742068617665206120736e6f77626f6172642e0000000000600082015250565b600061216c601b83611af8565b915061217782612136565b602082019050919050565b6000602082019050818103600083015261219b8161215f565b9050919050565b7f4e487b7100000000000000000000000000000000000000000000000000000000600052601160045260246000fd5b60006121dc82611a82565b91506121e783611a82565b92508282039050818111156121ff576121fe6121a2565b5b92915050565b7f596f7520617265207374696c6c2072656e74696e67206120736e6f77626f617260008201527f6400000000000000000000000000000000000000000000000000000000000000602082015250565b6000612261602183611af8565b915061226c82612205565b604082019050919050565b6000602082019050818103600083015261229081612254565b9050919050565b7f596f7520617265206e6f742072656e74696e67206120736e6f77626f61726400600082015250565b60006122cd601f83611af8565b91506122d882612297565b602082019050919050565b600060208201905081810360008301526122fc816122c0565b9050919050565b7f4e487b7100000000000000000000000000000000000000000000000000000000600052602260045260246000fd5b6000600282049050600182168061234a57607f821691505b60208210810361235d5761235c612303565b5b50919050565b7f596f75206861766520612070656e64696e67207061796d656e742e0000000000600082015250565b6000612399601b83611af8565b91506123a482612363565b602082019050919050565b600060208201905081810360008301526123c88161238c565b9050919050565b7f596f752063616e27742072656e7420617420746869732074696d652e00000000600082015250565b6000612405601c83611af8565b9150612410826123cf565b602082019050919050565b60006020820190508181036000830152612434816123f8565b9050919050565b60008190508160005260206000209050919050565b60006020601f8301049050919050565b600082821b905092915050565b60006008830261249d7fffffffffffffffffffffffffffffffffffffffffffffffffffffffffffffffff82612460565b6124a78683612460565b95508019841693508086168417925050509392505050565b6000819050919050565b60006124e46124df6124da84611a82565b6124bf565b611a82565b9050919050565b6000819050919050565b6124fe836124c9565b61251261250a826124eb565b84845461246d565b825550505050565b600090565b61252761251a565b6125328184846124f5565b505050565b5b818110156125565761254b60008261251f565b600181019050612538565b5050565b601f82111561259b5761256c8161243b565b61257584612450565b81016020851015612584578190505b61259861259085612450565b830182612537565b50505b505050565b600082821c905092915050565b60006125be600019846008026125a0565b1980831691505092915050565b60006125d783836125ad565b9150826002028217905092915050565b6125f082611aed565b67ffffffffffffffff81111561260957612608611ba9565b5b6126138254612332565b61261e82828561255a565b600060209050601f831160018114612651576000841561263f578287015190505b61264985826125cb565b8655506126b1565b601f19841661265f8661243b565b60005b8281101561268757848901518255600182019150602085019450602081019050612662565b868310156126a457848901516126a0601f8916826125ad565b8355505b6001600288020188555050505b505050505050565b7f596f7520616c7265616479206861766520616e206163636f756e742e00000000600082015250565b60006126ef601c83611af8565b91506126fa826126b9565b602082019050919050565b6000602082019050818103600083015261271e816126e2565b9050919050565b7f4e487b7100000000000000000000000000000000000000000000000000000000600052601260045260246000fd5b600061275f82611a82565b915061276a83611a82565b92508261277a57612779612725565b5b828204905092915050565b600061279082611db3565b915061279b83611db3565b9250816fffffffffffffffffffffffffffffffff04831182151516156127c4576127c36121a2565b5b82820290509291505056fea264697066735822122097cec8bc6cdd28ce96d4be4a53fdf350cc24daf2e007ba5af655665605cce0e264736f6c63430008100033",
  "linkReferences": {},
  "deployedLinkReferences": {}
}