{
  "_format": "hh-sol-artifact-1",
  "contractName": "Chainboard",
  "sourceName": "contracts/Chainboard.sol",
  "abi": [
    {
      "inputs": [],
      "stateMutability": "nonpayable",
      "type": "constructor"
    },
    {
      "inputs": [
        {
          "internalType": "address",
          "name": "walletAddress",
          "type": "address"
        },
        {
          "internalType": "bool",
          "name": "canRent",
          "type": "bool"
        },
        {
          "internalType": "bool",
          "name": "isRenting",
          "type": "bool"
        },
        {
          "internalType": "string",
          "name": "level",
          "type": "string"
        },
        {
          "internalType": "uint8",
          "name": "size",
          "type": "uint8"
        },
        {
          "internalType": "uint128",
          "name": "due",
          "type": "uint128"
        },
        {
          "internalType": "uint256",
          "name": "start",
          "type": "uint256"
        },
        {
          "internalType": "uint256",
          "name": "end",
          "type": "uint256"
        }
      ],
      "name": "addRenter",
      "outputs": [],
      "stateMutability": "nonpayable",
      "type": "function"
    },
    {
      "inputs": [
        {
          "internalType": "address",
          "name": "walletAddress",
          "type": "address"
        },
        {
          "internalType": "uint128",
          "name": "snowboardPrice",
          "type": "uint128"
        }
      ],
      "name": "checkIn",
      "outputs": [],
      "stateMutability": "nonpayable",
      "type": "function"
    },
    {
      "inputs": [
        {
          "internalType": "address",
          "name": "walletAddress",
          "type": "address"
        },
        {
          "internalType": "string",
          "name": "level",
          "type": "string"
        },
        {
          "internalType": "uint8",
          "name": "size",
          "type": "uint8"
        }
      ],
      "name": "checkOut",
      "outputs": [],
      "stateMutability": "nonpayable",
      "type": "function"
    },
    {
      "inputs": [
        {
          "internalType": "address",
          "name": "walletAddress",
          "type": "address"
        }
      ],
      "name": "getActualDuration",
      "outputs": [
        {
          "internalType": "uint256",
          "name": "",
          "type": "uint256"
        }
      ],
      "stateMutability": "view",
      "type": "function"
    },
    {
      "inputs": [
        {
          "internalType": "address",
          "name": "walletAddress",
          "type": "address"
        }
      ],
      "name": "getDue",
      "outputs": [
        {
          "internalType": "uint256",
          "name": "",
          "type": "uint256"
        }
      ],
      "stateMutability": "view",
      "type": "function"
    },
    {
      "inputs": [
        {
          "internalType": "address",
          "name": "walletAddress",
          "type": "address"
        }
      ],
      "name": "getEnd",
      "outputs": [
        {
          "internalType": "uint256",
          "name": "end",
          "type": "uint256"
        }
      ],
      "stateMutability": "view",
      "type": "function"
    },
    {
      "inputs": [
        {
          "internalType": "address",
          "name": "walletAddress",
          "type": "address"
        }
      ],
      "name": "getLevel",
      "outputs": [
        {
          "internalType": "string",
          "name": "level",
          "type": "string"
        }
      ],
      "stateMutability": "view",
      "type": "function"
    },
    {
      "inputs": [
        {
          "internalType": "address",
          "name": "walletAddress",
          "type": "address"
        }
      ],
      "name": "getRenterStatus",
      "outputs": [
        {
          "internalType": "bool",
          "name": "canRent",
          "type": "bool"
        },
        {
          "internalType": "bool",
          "name": "isRenting",
          "type": "bool"
        }
      ],
      "stateMutability": "view",
      "type": "function"
    },
    {
      "inputs": [
        {
          "internalType": "address",
          "name": "walletAddress",
          "type": "address"
        }
      ],
      "name": "getSize",
      "outputs": [
        {
          "internalType": "uint8",
          "name": "size",
          "type": "uint8"
        }
      ],
      "stateMutability": "view",
      "type": "function"
    },
    {
      "inputs": [
        {
          "internalType": "address",
          "name": "walletAddress",
          "type": "address"
        }
      ],
      "name": "getStart",
      "outputs": [
        {
          "internalType": "uint256",
          "name": "start",
          "type": "uint256"
        }
      ],
      "stateMutability": "view",
      "type": "function"
    },
    {
      "inputs": [
        {
          "internalType": "address",
          "name": "walletAddress",
          "type": "address"
        }
      ],
      "name": "getTotalDuration",
      "outputs": [
        {
          "internalType": "uint256",
          "name": "",
          "type": "uint256"
        }
      ],
      "stateMutability": "view",
      "type": "function"
    },
    {
      "inputs": [
        {
          "internalType": "address",
          "name": "walletAddress",
          "type": "address"
        }
      ],
      "name": "makePayment",
      "outputs": [],
      "stateMutability": "payable",
      "type": "function"
    },
    {
      "inputs": [
        {
          "internalType": "address",
          "name": "walletAddress",
          "type": "address"
        }
      ],
      "name": "renterExists",
      "outputs": [
        {
          "internalType": "bool",
          "name": "",
          "type": "bool"
        }
      ],
      "stateMutability": "view",
      "type": "function"
    }
  ],
  "bytecode": "0x608060405234801561001057600080fd5b50336000806101000a81548173ffffffffffffffffffffffffffffffffffffffff021916908373ffffffffffffffffffffffffffffffffffffffff160217905550612992806100606000396000f3fe6080604052600436106100c25760003560e01c8063817c89661161007f578063ce12482b11610059578063ce12482b146102b7578063d1062f63146102f5578063daee42531461031e578063f9d8241c14610347576100c2565b8063817c8966146102145780638c2e001114610251578063c6d2a8461461027a576100c2565b8063173087ba146100c7578063300be4fc1461010457806337da38821461012057806341ba6e891461015d578063504f16711461019a578063606b1623146101d7575b600080fd5b3480156100d357600080fd5b506100ee60048036038101906100e99190611afa565b610384565b6040516100fb9190611b40565b60405180910390f35b61011e60048036038101906101199190611afa565b610440565b005b34801561012c57600080fd5b5061014760048036038101906101429190611afa565b61084a565b6040516101549190611b40565b60405180910390f35b34801561016957600080fd5b50610184600480360381019061017f9190611afa565b6109b5565b6040516101919190611b40565b60405180910390f35b3480156101a657600080fd5b506101c160048036038101906101bc9190611afa565b610c6c565b6040516101ce9190611b77565b60405180910390f35b3480156101e357600080fd5b506101fe60048036038101906101f99190611afa565b610d35565b60405161020b9190611b40565b60405180910390f35b34801561022057600080fd5b5061023b60048036038101906102369190611afa565b610df1565b6040516102489190611c22565b60405180910390f35b34801561025d57600080fd5b5061027860048036038101906102739190611cd5565b610f35565b005b34801561028657600080fd5b506102a1600480360381019061029c9190611afa565b61129d565b6040516102ae9190611b40565b60405180910390f35b3480156102c357600080fd5b506102de60048036038101906102d99190611afa565b611387565b6040516102ec929190611d64565b60405180910390f35b34801561030157600080fd5b5061031c60048036038101906103179190611dd5565b6114a3565b005b34801561032a57600080fd5b5061034560048036038101906103409190611e6d565b611659565b005b34801561035357600080fd5b5061036e60048036038101906103699190611afa565b6118b3565b60405161037b9190611f43565b60405180910390f35b6000818073ffffffffffffffffffffffffffffffffffffffff163373ffffffffffffffffffffffffffffffffffffffff16146103f5576040517f08c379a00000000000000000000000000000000000000000000000000000000081526004016103ec90611fd0565b60405180910390fd5b600160008473ffffffffffffffffffffffffffffffffffffffff1673ffffffffffffffffffffffffffffffffffffffff16815260200190815260200160002060040154915050919050565b808073ffffffffffffffffffffffffffffffffffffffff163373ffffffffffffffffffffffffffffffffffffffff16146104af576040517f08c379a00000000000000000000000000000000000000000000000000000000081526004016104a690611fd0565b60405180910390fd5b6000600160008473ffffffffffffffffffffffffffffffffffffffff1673ffffffffffffffffffffffffffffffffffffffff16815260200190815260200160002060020160019054906101000a90046fffffffffffffffffffffffffffffffff166fffffffffffffffffffffffffffffffff1611610562576040517f08c379a000000000000000000000000000000000000000000000000000000000815260040161055990612062565b60405180910390fd5b34600160008473ffffffffffffffffffffffffffffffffffffffff1673ffffffffffffffffffffffffffffffffffffffff16815260200190815260200160002060020160019054906101000a90046fffffffffffffffffffffffffffffffff166fffffffffffffffffffffffffffffffff1614610614576040517f08c379a000000000000000000000000000000000000000000000000000000000815260040161060b906120f4565b60405180910390fd5b60008060009054906101000a900473ffffffffffffffffffffffffffffffffffffffff1673ffffffffffffffffffffffffffffffffffffffff163460405161065b90612145565b60006040518083038185875af1925050503d8060008114610698576040519150601f19603f3d011682016040523d82523d6000602084013e61069d565b606091505b50509050806106e1576040517f08c379a00000000000000000000000000000000000000000000000000000000081526004016106d8906121a6565b60405180910390fd5b60018060008573ffffffffffffffffffffffffffffffffffffffff1673ffffffffffffffffffffffffffffffffffffffff16815260200190815260200160002060000160146101000a81548160ff0219169083151502179055506000600160008573ffffffffffffffffffffffffffffffffffffffff1673ffffffffffffffffffffffffffffffffffffffff16815260200190815260200160002060020160016101000a8154816fffffffffffffffffffffffffffffffff02191690836fffffffffffffffffffffffffffffffff1602179055506000600160008573ffffffffffffffffffffffffffffffffffffffff1673ffffffffffffffffffffffffffffffffffffffff168152602001908152602001600020600301819055506000600160008573ffffffffffffffffffffffffffffffffffffffff1673ffffffffffffffffffffffffffffffffffffffff16815260200190815260200160002060040181905550505050565b6000818073ffffffffffffffffffffffffffffffffffffffff163373ffffffffffffffffffffffffffffffffffffffff16146108bb576040517f08c379a00000000000000000000000000000000000000000000000000000000081526004016108b290611fd0565b60405180910390fd5b60011515600160008573ffffffffffffffffffffffffffffffffffffffff1673ffffffffffffffffffffffffffffffffffffffff16815260200190815260200160002060000160159054906101000a900460ff16151514610951576040517f08c379a000000000000000000000000000000000000000000000000000000000815260040161094890612212565b60405180910390fd5b6000600160008573ffffffffffffffffffffffffffffffffffffffff1673ffffffffffffffffffffffffffffffffffffffff16815260200190815260200160002060030154426109a19190612261565b90506109ac816119ce565b92505050919050565b6000818073ffffffffffffffffffffffffffffffffffffffff163373ffffffffffffffffffffffffffffffffffffffff1614610a26576040517f08c379a0000000000000000000000000000000000000000000000000000000008152600401610a1d90611fd0565b60405180910390fd5b60001515600160008573ffffffffffffffffffffffffffffffffffffffff1673ffffffffffffffffffffffffffffffffffffffff16815260200190815260200160002060000160159054906101000a900460ff16151514610abc576040517f08c379a0000000000000000000000000000000000000000000000000000000008152600401610ab390612307565b60405180910390fd5b6000600160008573ffffffffffffffffffffffffffffffffffffffff1673ffffffffffffffffffffffffffffffffffffffff1681526020019081526020016000206003015411610b41576040517f08c379a0000000000000000000000000000000000000000000000000000000008152600401610b3890612373565b60405180910390fd5b6000600160008573ffffffffffffffffffffffffffffffffffffffff1673ffffffffffffffffffffffffffffffffffffffff1681526020019081526020016000206004015411610bc6576040517f08c379a0000000000000000000000000000000000000000000000000000000008152600401610bbd90612307565b60405180910390fd5b6000600160008573ffffffffffffffffffffffffffffffffffffffff1673ffffffffffffffffffffffffffffffffffffffff16815260200190815260200160002060030154600160008673ffffffffffffffffffffffffffffffffffffffff1673ffffffffffffffffffffffffffffffffffffffff16815260200190815260200160002060040154610c589190612261565b9050610c63816119ce565b92505050919050565b6000818073ffffffffffffffffffffffffffffffffffffffff163373ffffffffffffffffffffffffffffffffffffffff1614610cdd576040517f08c379a0000000000000000000000000000000000000000000000000000000008152600401610cd490611fd0565b60405180910390fd5b600160008473ffffffffffffffffffffffffffffffffffffffff1673ffffffffffffffffffffffffffffffffffffffff16815260200190815260200160002060020160009054906101000a900460ff16915050919050565b6000818073ffffffffffffffffffffffffffffffffffffffff163373ffffffffffffffffffffffffffffffffffffffff1614610da6576040517f08c379a0000000000000000000000000000000000000000000000000000000008152600401610d9d90611fd0565b60405180910390fd5b600160008473ffffffffffffffffffffffffffffffffffffffff1673ffffffffffffffffffffffffffffffffffffffff16815260200190815260200160002060030154915050919050565b6060818073ffffffffffffffffffffffffffffffffffffffff163373ffffffffffffffffffffffffffffffffffffffff1614610e62576040517f08c379a0000000000000000000000000000000000000000000000000000000008152600401610e5990611fd0565b60405180910390fd5b600160008473ffffffffffffffffffffffffffffffffffffffff1673ffffffffffffffffffffffffffffffffffffffff1681526020019081526020016000206001018054610eaf906123c2565b80601f0160208091040260200160405190810160405280929190818152602001828054610edb906123c2565b8015610f285780601f10610efd57610100808354040283529160200191610f28565b820191906000526020600020905b815481529060010190602001808311610f0b57829003601f168201915b5050505050915050919050565b838073ffffffffffffffffffffffffffffffffffffffff163373ffffffffffffffffffffffffffffffffffffffff1614610fa4576040517f08c379a0000000000000000000000000000000000000000000000000000000008152600401610f9b90611fd0565b60405180910390fd5b6000600160008773ffffffffffffffffffffffffffffffffffffffff1673ffffffffffffffffffffffffffffffffffffffff16815260200190815260200160002060020160019054906101000a90046fffffffffffffffffffffffffffffffff166fffffffffffffffffffffffffffffffff1614611057576040517f08c379a000000000000000000000000000000000000000000000000000000000815260040161104e9061243f565b60405180910390fd5b60011515600160008773ffffffffffffffffffffffffffffffffffffffff1673ffffffffffffffffffffffffffffffffffffffff16815260200190815260200160002060000160149054906101000a900460ff161515146110ed576040517f08c379a00000000000000000000000000000000000000000000000000000000081526004016110e4906124ab565b60405180910390fd5b60018060008773ffffffffffffffffffffffffffffffffffffffff1673ffffffffffffffffffffffffffffffffffffffff16815260200190815260200160002060000160156101000a81548160ff0219169083151502179055508383600160008873ffffffffffffffffffffffffffffffffffffffff1673ffffffffffffffffffffffffffffffffffffffff16815260200190815260200160002060010191826111989291906126b1565b5081600160008773ffffffffffffffffffffffffffffffffffffffff1673ffffffffffffffffffffffffffffffffffffffff16815260200190815260200160002060020160006101000a81548160ff021916908360ff16021790555042600160008773ffffffffffffffffffffffffffffffffffffffff1673ffffffffffffffffffffffffffffffffffffffff168152602001908152602001600020600301819055506000600160008773ffffffffffffffffffffffffffffffffffffffff1673ffffffffffffffffffffffffffffffffffffffff16815260200190815260200160002060000160146101000a81548160ff0219169083151502179055505050505050565b6000818073ffffffffffffffffffffffffffffffffffffffff163373ffffffffffffffffffffffffffffffffffffffff161461130e576040517f08c379a000000000000000000000000000000000000000000000000000000000815260040161130590611fd0565b60405180910390fd5b600160008473ffffffffffffffffffffffffffffffffffffffff1673ffffffffffffffffffffffffffffffffffffffff16815260200190815260200160002060020160019054906101000a90046fffffffffffffffffffffffffffffffff166fffffffffffffffffffffffffffffffff16915050919050565b600080828073ffffffffffffffffffffffffffffffffffffffff163373ffffffffffffffffffffffffffffffffffffffff16146113f9576040517f08c379a00000000000000000000000000000000000000000000000000000000081526004016113f090611fd0565b60405180910390fd5b600160008573ffffffffffffffffffffffffffffffffffffffff1673ffffffffffffffffffffffffffffffffffffffff16815260200190815260200160002060000160149054906101000a900460ff169250600160008573ffffffffffffffffffffffffffffffffffffffff1673ffffffffffffffffffffffffffffffffffffffff16815260200190815260200160002060000160159054906101000a900460ff16915050915091565b818073ffffffffffffffffffffffffffffffffffffffff163373ffffffffffffffffffffffffffffffffffffffff1614611512576040517f08c379a000000000000000000000000000000000000000000000000000000000815260040161150990611fd0565b60405180910390fd5b60011515600160008573ffffffffffffffffffffffffffffffffffffffff1673ffffffffffffffffffffffffffffffffffffffff16815260200190815260200160002060000160159054906101000a900460ff161515146115a8576040517f08c379a000000000000000000000000000000000000000000000000000000000815260040161159f90612212565b60405180910390fd5b6115b283836119fc565b6000600160008573ffffffffffffffffffffffffffffffffffffffff1673ffffffffffffffffffffffffffffffffffffffff16815260200190815260200160002060000160156101000a81548160ff02191690831515021790555042600160008573ffffffffffffffffffffffffffffffffffffffff1673ffffffffffffffffffffffffffffffffffffffff16815260200190815260200160002060040181905550505050565b600015156116668a6118b3565b1515146116a8576040517f08c379a000000000000000000000000000000000000000000000000000000000815260040161169f906127cd565b60405180910390fd5b6040518061010001604052808a73ffffffffffffffffffffffffffffffffffffffff1681526020018915158152602001881515815260200187878080601f016020809104026020016040519081016040528093929190818152602001838380828437600081840152601f19601f8201169050808301925050505050505081526020018560ff168152602001846fffffffffffffffffffffffffffffffff16815260200183815260200182815250600160008b73ffffffffffffffffffffffffffffffffffffffff1673ffffffffffffffffffffffffffffffffffffffff16815260200190815260200160002060008201518160000160006101000a81548173ffffffffffffffffffffffffffffffffffffffff021916908373ffffffffffffffffffffffffffffffffffffffff16021790555060208201518160000160146101000a81548160ff02191690831515021790555060408201518160000160156101000a81548160ff021916908315150217905550606082015181600101908161183091906127ed565b5060808201518160020160006101000a81548160ff021916908360ff16021790555060a08201518160020160016101000a8154816fffffffffffffffffffffffffffffffff02191690836fffffffffffffffffffffffffffffffff16021790555060c0820151816003015560e08201518160040155905050505050505050505050565b6000818073ffffffffffffffffffffffffffffffffffffffff163373ffffffffffffffffffffffffffffffffffffffff1614611924576040517f08c379a000000000000000000000000000000000000000000000000000000000815260040161191b90611fd0565b60405180910390fd5b600073ffffffffffffffffffffffffffffffffffffffff16600160008573ffffffffffffffffffffffffffffffffffffffff1673ffffffffffffffffffffffffffffffffffffffff16815260200190815260200160002060000160009054906101000a900473ffffffffffffffffffffffffffffffffffffffff1673ffffffffffffffffffffffffffffffffffffffff16146119c357600191506119c8565b600091505b50919050565b6000603c82106119f2576000603c836119e791906128ee565b9050809150506119f7565b600190505b919050565b6000611a07836109b5565b90508181611a15919061291f565b600160008573ffffffffffffffffffffffffffffffffffffffff1673ffffffffffffffffffffffffffffffffffffffff16815260200190815260200160002060020160016101000a8154816fffffffffffffffffffffffffffffffff02191690836fffffffffffffffffffffffffffffffff160217905550505050565b600080fd5b600080fd5b600073ffffffffffffffffffffffffffffffffffffffff82169050919050565b6000611ac782611a9c565b9050919050565b611ad781611abc565b8114611ae257600080fd5b50565b600081359050611af481611ace565b92915050565b600060208284031215611b1057611b0f611a92565b5b6000611b1e84828501611ae5565b91505092915050565b6000819050919050565b611b3a81611b27565b82525050565b6000602082019050611b556000830184611b31565b92915050565b600060ff82169050919050565b611b7181611b5b565b82525050565b6000602082019050611b8c6000830184611b68565b92915050565b600081519050919050565b600082825260208201905092915050565b60005b83811015611bcc578082015181840152602081019050611bb1565b60008484015250505050565b6000601f19601f8301169050919050565b6000611bf482611b92565b611bfe8185611b9d565b9350611c0e818560208601611bae565b611c1781611bd8565b840191505092915050565b60006020820190508181036000830152611c3c8184611be9565b905092915050565b600080fd5b600080fd5b600080fd5b60008083601f840112611c6957611c68611c44565b5b8235905067ffffffffffffffff811115611c8657611c85611c49565b5b602083019150836001820283011115611ca257611ca1611c4e565b5b9250929050565b611cb281611b5b565b8114611cbd57600080fd5b50565b600081359050611ccf81611ca9565b92915050565b60008060008060608587031215611cef57611cee611a92565b5b6000611cfd87828801611ae5565b945050602085013567ffffffffffffffff811115611d1e57611d1d611a97565b5b611d2a87828801611c53565b93509350506040611d3d87828801611cc0565b91505092959194509250565b60008115159050919050565b611d5e81611d49565b82525050565b6000604082019050611d796000830185611d55565b611d866020830184611d55565b9392505050565b60006fffffffffffffffffffffffffffffffff82169050919050565b611db281611d8d565b8114611dbd57600080fd5b50565b600081359050611dcf81611da9565b92915050565b60008060408385031215611dec57611deb611a92565b5b6000611dfa85828601611ae5565b9250506020611e0b85828601611dc0565b9150509250929050565b611e1e81611d49565b8114611e2957600080fd5b50565b600081359050611e3b81611e15565b92915050565b611e4a81611b27565b8114611e5557600080fd5b50565b600081359050611e6781611e41565b92915050565b60008060008060008060008060006101008a8c031215611e9057611e8f611a92565b5b6000611e9e8c828d01611ae5565b9950506020611eaf8c828d01611e2c565b9850506040611ec08c828d01611e2c565b97505060608a013567ffffffffffffffff811115611ee157611ee0611a97565b5b611eed8c828d01611c53565b96509650506080611f008c828d01611cc0565b94505060a0611f118c828d01611dc0565b93505060c0611f228c828d01611e58565b92505060e0611f338c828d01611e58565b9150509295985092959850929598565b6000602082019050611f586000830184611d55565b92915050565b7f596f752063616e206f6e6c79206d616e61676520796f7572206163636f756e7460008201527f2e00000000000000000000000000000000000000000000000000000000000000602082015250565b6000611fba602183611b9d565b9150611fc582611f5e565b604082019050919050565b60006020820190508181036000830152611fe981611fad565b9050919050565b7f596f7520646f6e2774206861766520616e797468696e6720647565206174207460008201527f6869732074696d652e0000000000000000000000000000000000000000000000602082015250565b600061204c602983611b9d565b915061205782611ff0565b604082019050919050565b6000602082019050818103600083015261207b8161203f565b9050919050565b7f596f7520646f6e2774207365742074686520636f727265637420616d6f756e7460008201527f20286d75737420626520657175616c20746f20796f7572206475652900000000602082015250565b60006120de603c83611b9d565b91506120e982612082565b604082019050919050565b6000602082019050818103600083015261210d816120d1565b9050919050565b600081905092915050565b50565b600061212f600083612114565b915061213a8261211f565b600082019050919050565b600061215082612122565b9150819050919050565b7f5472616e73666572206661696c65642e00000000000000000000000000000000600082015250565b6000612190601083611b9d565b915061219b8261215a565b602082019050919050565b600060208201905081810360008301526121bf81612183565b9050919050565b7f596f7520646f6e27742068617665206120736e6f77626f6172642e0000000000600082015250565b60006121fc601b83611b9d565b9150612207826121c6565b602082019050919050565b6000602082019050818103600083015261222b816121ef565b9050919050565b7f4e487b7100000000000000000000000000000000000000000000000000000000600052601160045260246000fd5b600061226c82611b27565b915061227783611b27565b925082820390508181111561228f5761228e612232565b5b92915050565b7f596f7520617265207374696c6c2072656e74696e67206120736e6f77626f617260008201527f6400000000000000000000000000000000000000000000000000000000000000602082015250565b60006122f1602183611b9d565b91506122fc82612295565b604082019050919050565b60006020820190508181036000830152612320816122e4565b9050919050565b7f596f7520617265206e6f742072656e74696e67206120736e6f77626f61726400600082015250565b600061235d601f83611b9d565b915061236882612327565b602082019050919050565b6000602082019050818103600083015261238c81612350565b9050919050565b7f4e487b7100000000000000000000000000000000000000000000000000000000600052602260045260246000fd5b600060028204905060018216806123da57607f821691505b6020821081036123ed576123ec612393565b5b50919050565b7f596f75206861766520612070656e64696e67207061796d656e742e0000000000600082015250565b6000612429601b83611b9d565b9150612434826123f3565b602082019050919050565b600060208201905081810360008301526124588161241c565b9050919050565b7f596f752063616e27742072656e7420617420746869732074696d652e00000000600082015250565b6000612495601c83611b9d565b91506124a08261245f565b602082019050919050565b600060208201905081810360008301526124c481612488565b9050919050565b600082905092915050565b7f4e487b7100000000000000000000000000000000000000000000000000000000600052604160045260246000fd5b60008190508160005260206000209050919050565b60006020601f8301049050919050565b600082821b905092915050565b6000600883026125677fffffffffffffffffffffffffffffffffffffffffffffffffffffffffffffffff8261252a565b612571868361252a565b95508019841693508086168417925050509392505050565b6000819050919050565b60006125ae6125a96125a484611b27565b612589565b611b27565b9050919050565b6000819050919050565b6125c883612593565b6125dc6125d4826125b5565b848454612537565b825550505050565b600090565b6125f16125e4565b6125fc8184846125bf565b505050565b5b81811015612620576126156000826125e9565b600181019050612602565b5050565b601f8211156126655761263681612505565b61263f8461251a565b8101602085101561264e578190505b61266261265a8561251a565b830182612601565b50505b505050565b600082821c905092915050565b60006126886000198460080261266a565b1980831691505092915050565b60006126a18383612677565b9150826002028217905092915050565b6126bb83836124cb565b67ffffffffffffffff8111156126d4576126d36124d6565b5b6126de82546123c2565b6126e9828285612624565b6000601f8311600181146127185760008415612706578287013590505b6127108582612695565b865550612778565b601f19841661272686612505565b60005b8281101561274e57848901358255600182019150602085019450602081019050612729565b8683101561276b5784890135612767601f891682612677565b8355505b6001600288020188555050505b50505050505050565b7f596f7520616c7265616479206861766520616e206163636f756e742e00000000600082015250565b60006127b7601c83611b9d565b91506127c282612781565b602082019050919050565b600060208201905081810360008301526127e6816127aa565b9050919050565b6127f682611b92565b67ffffffffffffffff81111561280f5761280e6124d6565b5b61281982546123c2565b612824828285612624565b600060209050601f8311600181146128575760008415612845578287015190505b61284f8582612695565b8655506128b7565b601f19841661286586612505565b60005b8281101561288d57848901518255600182019150602085019450602081019050612868565b868310156128aa57848901516128a6601f891682612677565b8355505b6001600288020188555050505b505050505050565b7f4e487b7100000000000000000000000000000000000000000000000000000000600052601260045260246000fd5b60006128f982611b27565b915061290483611b27565b925082612914576129136128bf565b5b828204905092915050565b600061292a82611d8d565b915061293583611d8d565b925082820261294381611d8d565b915080821461295557612954612232565b5b509291505056fea2646970667358221220e7698e6fbef14f6c40619751d7708afc2bfb460aa731f7ff0d9a846e53af8a3264736f6c63430008110033",
  "linkReferences": {},
  "deployedLinkReferences": {}
}